:020000040800F2
:100000000080002029360008352100084121000821
:10001000472100084D21000853210008000000007E
:10002000000000000000000000000000592100084E
:100030006521000800000000712100087D210008F2
:1000400071360008713600087136000871360008F4
:100050007136000871360008212200087136000848
:1000600071360008713600087136000871360008D4
:1000700071360008713600087136000871360008C4
:1000800071360008713600087136000871360008B4
:1000900071360008713600087136000871360008A4
:1000A00071360008A13F000871360008713600085B
:1000B0007136000871360008713600087136000884
:1000C0007136000871360008713600087136000874
:1000D0007136000871360008713600087136000864
:1000E0007136000871360008713600080000000003
:1000F0000000000000000000000000000000000000
:100100000000000071360008713600080000000091
:100110007136000871360008000000000000000081
:100120007136000871360008713600087136000813
:1001300000000000000000000000000000000000BF
:100140000000000000000000000000007136000800
:100150000000000000000000713600087136000841
:1001600000000000000000000000000071360008E0
:100170000348044B834202D0034B03B11847704736
:100180009800002098000020000000000548064963
:100190000B1AD90F01EBA301491002D0034B03B195
:1001A00018477047980000209800002000000000C9
:1001B00010B5064C237843B9FFF7DAFF044B13B1AF
:1001C0000448AFF300800123237010BD9800002085
:1001D000000000001C40000808B5044B1BB1044996
:1001E0000448AFF30080BDE80840CFE700000000FE
:1001F0009C0000201C40000853B94AB9002908BFE0
:1002000000281CBF4FF0FF314FF0FF3000F074B9F1
:10021000ADF1080C6DE904CE00F006F8DDF804E05D
:10022000DDE9022304B070472DE9F047089E0D4632
:1002300004468846002B4DD18A42944668D9B2FACA
:1002400082F252B101FA02F3C2F1200120FA01F167
:100250000CFA02FC41EA030894404FEA1C45210CC9
:10026000B8FBF5FE1FFA8CF705FB1E8341EA03433A
:100270000EFB07F199420BD91CEB03030EF1FF3083
:1002800080F01E81994240F21B81AEF1020E634460
:100290005B1AA4B2B3FBF5F005FB103344EA034448
:1002A00000FB07F7A7420AD91CEB040400F1FF3357
:1002B00080F00881A74240F2058164440238E41BC3
:1002C00040EA0E4000211EB1D4400023C6E900439D
:1002D000BDE8F0878B4208D9002E00F0EE800021A7
:1002E000C6E900050846BDE8F087B3FA83F10029A6
:1002F0004AD1AB4202D3824200F2F980841A65EB04
:10030000030301209846002EE2D0C6E90048DFE74B
:1003100002B9FFDEB2FA82F2002A40F09180A1EB2E
:100320000C054FEA1C471FFA8CFE0121B5FBF7F3C1
:1003300007FB1350250C45EA00450EFB03F0A842CD
:1003400008D91CEB050503F1FF3802D2A84200F2E0
:10035000CB8043462D1AA4B2B5FBF7F007FB10552E
:1003600044EA05440EFB00FEA64508D91CEB040434
:1003700000F1FF3502D2A64500F2BB802846A4EB6F
:100380000E0440EA03409EE7C1F120078B4022FAA9
:1003900007FC4CEA030C20FA07F405FA01F31C43AE
:1003A000FD404FEA1C4900FA01F3B5FBF9F8200CB7
:1003B0001FFA8CFE09FB185540EA054508FB0EF0B4
:1003C000A84202FA01F20BD91CEB050508F1FF3A2D
:1003D00080F08880A84240F28580A8F10208654438
:1003E0002D1AA4B2B5FBF9F009FB105544EA0545F6
:1003F00000FB0EFEAE4508D91CEB050500F1FF34ED
:100400006CD2AE456AD90238654440EA0840A0FB88
:100410000294A5EB0E05A542C846A64656D353D076
:100420005EB1B3EB080265EB0E0505FA07F722FA99
:1004300001F3CD401F43C6E900750021BDE8F087F8
:10044000C2F1200320FA03F10CFA02FC25FA03F3AF
:1004500095400D434FEA1C471FFA8CFEB3FBF7F1A2
:1004600007FB11302B0C43EA004301FB0EF09842CE
:1004700004FA02F408D91CEB030301F1FF382FD270
:1004800098422DD9023963441B1AADB2B3FBF7F081
:1004900007FB103345EA034500FB0EF3AB4208D9D6
:1004A0001CEB050500F1FF3816D2AB4214D9023817
:1004B0006544ED1A40EA014138E73146304607E726
:1004C0008646E5E61846FAE64B45A9D2B9EB02089E
:1004D00064EB0C0E0138A3E74046EAE7204694E7B8
:1004E0004146D1E7D0467BE7023B654432E7084608
:1004F00009E76444023842E7704700BF70B50D4E0B
:100500000D4D761BB61006D0002455F8043B01347F
:100510009847A642F9D1094E094D761B03F07EFD9E
:10052000B61006D0002455F8043B01349847A64283
:10053000F9D170BDA4410008A4410008A8410008F9
:10054000A4410008830730B548D0541E002A3FD08C
:10055000CAB2034601E0013C3AD303F8012B9D07E0
:10056000F9D1032C2DD9CDB245EA05250F2C45EA4A
:10057000054536D9A4F1100222F00F0C03F1200E2C
:10058000E6444FEA121C03F1100242E9045542E925
:10059000025510327245F8D10CF1010214F00C0F23
:1005A00003EB021204F00F0C13D0ACF1040323F0A0
:1005B00003030433134442F8045B9342FBD10CF071
:1005C00003042CB1CAB21C4403F8012B9C42FBD19A
:1005D00030BD64461346002CF4D1F9E703461446B7
:1005E000BFE71A46A446E0E70EB410B5044683B050
:1005F00008B183695BB106ABA168059A01932046F7
:1006000000F072FD03B0BDE8104003B0704700F089
:1006100087FBF0E70FB410B50A4B1C6882B00CB131
:10062000A3695BB105ABA168049A0193204600F071
:100630005BFD02B0BDE8104004B07047204600F0FA
:100640006FFBEFE73400002010B5044682B008B11C
:10065000836933B1A268204602B0BDE8104001F0C2
:100660007FB8019100F05CFB0199F3E738B50B4BC3
:100670001C6805460CB1A36933B1A268294620461F
:10068000BDE8384001F06CB8204600F049FBA26894
:1006900029462046BDE8384001F062B83400002009
:1006A000F8B50E460746002832D0836973B38468D4
:1006B0002D4B9C4236D02D4B9C423ED02C4B9C4225
:1006C00008BFFC68A3891B0730D5236973B335784D
:1006D0003DB934E023685A1C22601D7016F8015F92
:1006E0006DB3A368013B002BA360F3DAD4F818C004
:1006F000634529462246384601DB0A2DEAD100F03F
:1007000041F80130EAD14FF0FF30F8BD00F008FBAE
:10071000BB69BC68002BCBD1384600F001FB124B03
:100720009C42C8D17C68A3891B07CED42146384699
:1007300000F08CF80028CAD0E5E7BC68C2E7A368DF
:10074000013B002BA36008DA22460A21384600F05C
:1007500019F80130D7D00A20F8BD23680A22591CA5
:1007600021601A701046F8BD404100082041000881
:1007700000410008024B01461868FFF791BF00BF17
:1007800034000020F8B50D461446064608B18369CA
:1007900043B3254B9C422AD0244B9C4229D0244B66
:1007A0009C4208BFF468A389A269A2601A0722D5F7
:1007B000236903B322686169D31AEDB299422F46C7
:1007C00029DD0133A1680139A160511C2160157038
:1007D00062699A4216D0A389DB0701D50A2D11D090
:1007E0003846F8BD00F09CFA0F4B9C42D4D1746897
:1007F000D9E7B468D7E72146304600F027F838B982
:100800002369D7E72146304600F024F90028E7D0D5
:100810004FF0FF37E4E72146304600F01BF900288F
:10082000F6D122680123CDE74041000820410008AD
:100830000041000810B4044C03460A46206810BC6E
:100840001946FFF79FBF00BF340000203C4B70B536
:100850001D6806460C460DB1AB69E3B1394B9C42AD
:100860001FD0394B9C424DD0384B9C4208BFEC689E
:10087000B4F90C3018079AB219D5216911B312F0E6
:1008800001002FD00020A06060694042A0610029D3
:100890002ED0002070BD284600F042FA294B9C4221
:1008A000DFD16C68B4F90C3018079AB2E5D4D106E0
:1008B0003ED5520728D4216943F00803A3819AB298
:1008C0000029DCD102F42070B0F5007FD7D021469A
:1008D000304600F089FAB4F90C3021699AB212F06E
:1008E0000100CFD1950758BF6069A0600029D0D121
:1008F000120658BF0846CDD543F04003A3814FF000
:10090000FF3070BDAC68B3E7616B51B104F14402D4
:10091000914204D0304600F0F5FAB4F90C300022D0
:10092000626321690022C4E9001223F02403C3E7B3
:10093000092243F0400332604FF0FF30A38170BDC5
:100940003400002040410008204100080041000818
:10095000F8B58B890C46190707463AD46268002A15
:1009600053DDE66A002E4ED000223D683A6013F453
:1009700080524ED1216A01233846B047421C5AD0DA
:10098000A389E66A5B0705D56368C01A636B0BB180
:10099000236CC01A216A024600233846B047411C26
:1009A00039D13B68002B36D01D2B01D0162B49D1F5
:1009B00023690022C4E90032616B3D6019B304F180
:1009C0004403994202D0384600F09CFA002060634C
:1009D000F8BD2669BEB1256826609A070CBF636919
:1009E0000023AD1BA3600CE0D4F828C0216A2B467D
:1009F00032463846E047B0F1000CA5EB0C056644E2
:100A000012DD002DF0DC0020F8BD226C002AA8DCED
:100A1000F9E7606DB6E70023636023692360A3896B
:100A2000DB04C9D56065C7E7A38943F040034FF0F5
:100A3000FF30A381F8BD3B68002BA1D01D2B06D051
:100A4000162B04D0A38943F04003A381F8BD3D6079
:100A5000D9E700BF38B50B69BBB10C46054608B1F4
:100A60008369B3B10D4B9C4211D00D4B9C4213D006
:100A70000C4B9C4208BFEC68B4F90C302BB12146FA
:100A80002846BDE83840FFF763BF002038BD6C68DA
:100A9000F2E700F045F9E5E7AC68EDE74041000812
:100AA000204100080041000838B540B303690446FE
:100AB000E3B1174B1D680DB1AB69CBB1154B9C422F
:100AC0000FD0154B9C4221D0144B9C4208BFEC68C0
:100AD000B4F90C3053B121462846BDE83840FFF741
:100AE00037BF6C68B4F90C30002BF4D1002038BD4E
:100AF000284600F015F9074B9C42E2D1F1E7084B7C
:100B000008491868BDE8384000F04AB9AC68DFE72A
:100B10003400002040410008204100080041000846
:100B2000FC400008550A000800207047014900F009
:100B300037B900BF550A00080020704770B5682219
:100B40004D1E02FB05F50E4605F1740100F038FA62
:100B5000044640B100210C30C4E90016A06005F144
:100B60006802FFF7EFFC204670BD00BF274B2DE960
:100B7000F0411E68B369074653B348364FF0040886
:100B8000D6E90134013B04D51EE05A1C04F1680487
:100B90001AD0B4F90C50013B002DF6D11C4B656600
:100BA000C4E90055C4E90253C4E90455A56108220B
:100BB000294604F15C00FFF7C5FCC4E90D55C4E902
:100BC00012552046BDE8F08135682DB12E46D7E795
:100BD000304600F01FF8D0E74FF4D671384600F0E9
:100BE000EFF9044668B10560C0F804800C3029466E
:100BF000A06025464FF4D072FFF7A4FC34602E4667
:100C0000BEE70C2330603B60DBE700BFFC40000820
:100C10000100FFFF2DE9F84F344B35491A68816216
:100C200090424FF00003C0E91233036504BF012373
:100C300083610546FFF79AFF68602846FFF796FF35
:100C4000A8602846FFF792FF6F68E860002404233D
:100C5000C7E9024308222146C7E90044C7E9044422
:100C60007C66BC6107F15C00FFF76CFCDFF884B0C8
:100C7000AE68DFF884A0DFF88490DFF88480214B31
:100C8000C7F828A0C7E9087BC7F82C90C7F83080C0
:100C90000822F360C6E90044C6E904447466B460FF
:100CA000B461214606F15C00FFF74CFCC6E9086B15
:100CB000C6E90AA9C6F83080EE68134BF360C6E9AE
:100CC0000044C6E904447466B460B4612146082255
:100CD00006F15C00FFF736FC0123C6E9086BC6E9A4
:100CE0000B98C6F828A0AB61BDE8F88FFC4000085F
:100CF0002D0B000895180008BD180008FD18000805
:100D00001D1900080900010012000200024B0349EE
:100D1000186800F045B800BFFC400008550A0008FC
:100D2000836903B976E77047704700BF704700BF1B
:100D3000704700BF704700BF024B0349186800F0BE
:100D40000FB800BF34000020290B0008024B0349F4
:100D5000186800F005B800BF34000020390B000807
:100D60002DE9F041884600F148070026D7E90154F3
:100D7000013D0FD4A389012B05F1FF3506D9B4F944
:100D80000E300133204601D0C04706436B1C04F1EE
:100D90006804EFD13F68002FE8D13046BDE8F0810C
:100DA0002DE9F8430746884600F148064FF0000950
:100DB000D6E90154013D11D4A389012B05F1FF357A
:100DC00008D9B4F90E300133214603D03846C04764
:100DD00049EA00096B1C04F16804EDD13668002E65
:100DE000E6D14846BDE8F883F0B58B890C469907F3
:100DF00097B007D504F147030122C4E90432236008
:100E000017B0F0BDB4F90E10002905462DDB6A4677
:100E100000F0B0FD002827DB019E06F470464FF479
:100E20008067A6F50056B6FA86F639462846760952
:100E300000F0C6F830B3A3891A4AAA6243F08003CF
:100E4000C4E90407A3812060002ED9D0B4F90E10A4
:100E5000284600F019FF0028D2D0A38923F003030D
:100E600043F00103A381CBE7A38913F0800F14BFE4
:100E700040274FF4806739462846002600F0A0F846
:100E80000028D8D1B4F90C309A05B9D423F0030363
:100E900004F1470243F002030121C4E90421A381C4
:100EA0002260ADE72D0B000870B50C46B1F90E10AD
:100EB000002996B016461D4613DB6A4600F05AFD1F
:100EC00000280EDB019901F47041A1F50051B1FA3F
:100ED00081F14FF48063490900202960336016B026
:100EE00070BDB4F90C3000221B062A6004D54023E3
:100EF0000020336016B070BD4FF480630020336073
:100F000016B070BD002951D038B551F8043C0C1F03
:100F1000002BB8BFE418054601F048F8274A1368CB
:100F20002BB1A3420CD92168601883422CD0636096
:100F300028461460BDE8384001F03AB8A3420FD803
:100F40001A465B68002BF9D111685018844217D0FB
:100F50002DD3636054602846BDE8384001F028B8BE
:100F600011685018A04215D021D82168601883421A
:100F7000EFD118685B680144C4E900135460EAE7E4
:100F8000236819441160E6E718685B680144C4E906
:100F90000013CDE720680144501883421160DAD174
:100FA000D3E900030144C2E90013D4E770470C23DE
:100FB0002B602846BDE8384000F0FABFF40000205E
:100FC000F8B5CD1C25F0030508350C2D38BF0C25D0
:100FD000002D064623DBA94221D8254F00F0E6FF6D
:100FE0003A6822B3144603E063682246FBB11C460C
:100FF00023685B1BF8D40B2B15D8636894420CBF95
:101000003B605360304600F0D3FF04F10B00231D1A
:1010100020F00700C21A01D01B1AA350F8BD0C2300
:1010200033600020F8BD23601C442560EAE779683E
:10103000C9B12946304600F01BFC431C0CD0C41C2F
:1010400024F00304A04205D0211A304600F010FC21
:10105000013001D02560D5E70C233046336000F025
:10106000A7FF0020F8BD304600F002FC7860E0E702
:10107000F40000209368013B002B936005DAD2F85E
:1010800018C0634507DB0A2905D01368581C106097
:10109000197008467047FFF775BB00BF9BB1F8B5E4
:1010A000134406460F46541E5D1E01E0AC4208D0B4
:1010B00014F8011F3A463046FFF7DCFF431CF5D118
:1010C000F8BD0020F8BD0020704700BF936810B540
:1010D000144613B95360184610BD00F061FC00239C
:1010E000C4E9013310BD00BF2DE9F04F88469FB021
:1010F00015461C46814618B18369002B00F0A2807A
:10110000924B984500F0A480914B984500F0B18037
:10111000904B984508BFD9F80C80B8F80C301807E8
:1011200040F19D80D8F81030002B00F0988000230B
:101130000B932978884E059420238DF83130302385
:101140008DF832300127002974D02C460B4604E07C
:1011500014F8013F002B00F08F80252BF8D1B4EB61
:10116000050B40F08C802378002B63D000234FF0D8
:10117000FF32CDE90723069309938DF85B301C936A
:10118000013404E0069A07FA03F313430693254655
:10119000052214F8011B304600F0A2FD831B002835
:1011A000F0D1069BD90644BF20228DF85B20297818
:1011B0001A0744BF2B228DF85B202A2970D1059A8B
:1011C0001168043200290592C0F29B800991697868
:1011D00001352E2976D0614C0322204600F080FD97
:1011E00038B1069B001B402404FA00F00343069329
:1011F000013515F8011B5A488DF83010062200F011
:101200006FFD002800F08380564B002B6DD005AA9F
:101210000092554B424606A94846AFF30080039022
:10122000039B013306D00B9B039A297813440B933D
:1012300000298AD1B8F80C305B0617D40B981FB080
:10124000BDE8F08FFFF76CFD404B98457FF45CAF35
:10125000D9F80480B8F80C3018073FF563AF414661
:101260004846FFF7F3FA00283FF461AF4FF0FF3034
:10127000E5E7D9F8088050E7B4EB050BDAD0AA46C9
:10128000C5F1010503E0934536D91AF8011F42461E
:101290004846FFF7EFFE013005EB0A02F3D1C9E73C
:1012A000A1F13002092A94D8099B15F8011F03EB1C
:1012B000830302EB4303A1F13002092AF5D92E2959
:1012C000099388D169782A292BD1059BA9781A68B6
:1012D00007920433002A05F102000593B8BF4FF0CE
:1012E000FF330546B8BF079375E7059B073323F027
:1012F00007030833059396E70B9A23785A440B9219
:1013000032E7494243F00203099106935FE705AAD9
:101310000092154B424606A9484600F0C9F80390D2
:101320007EE7A1F130020023092A079305F10105A8
:101330003FF651AF15F8011F03EB830302EB4303A4
:10134000A1F13002092AF5D9079344E7404100088A
:101350002041000800410008604100086841000881
:101360006C410008000000009D10000810B4044CFF
:1013700084461346206810BC0A466146FFF7B4BE97
:10138000340000202DE9F04791461E460A698B681B
:10139000DDF820809A42B8BF1A46C9F8002091F8BB
:1013A00043300C46054613B10132C9F800202268CB
:1013B00091065DD5D9F800300233C9F800302268B3
:1013C00012F0060F11461ED1E168CB1A002BD8BFD0
:1013D000114618DD04F1190A002706E0D9F800309B
:1013E000E268A2EB030CBC450CDD012352463146FA
:1013F0002846C047013007F10107EFD14FF0FF3019
:10140000BDE8F087216894F84330003B18BF012302
:101410008A060AD5E1185A1C302081F8430022447C
:1014200094F8451082F84310023304F14302314628
:101430002846C0470130E1D0236803F00603042B9F
:101440001DD0A3682269934225DD00279B1A1F4403
:1014500004F11A09002401E0BC421CDA01234A46C7
:1014600031462846C047013004F10104F4D1C5E7F4
:1014700012F0060F12D0003B18BF0123D5E7D9F8B0
:101480000030E1682269C91AA368934221EAE17732
:10149000DCDC0029DCDC0020BDE8F087E168D9F85D
:1014A0000030CB1A002BD8BF114693DCABE700BF4E
:1014B0002DE9F043174685B00A7E0C9D0C46064682
:1014C000984601F1430C002A33D0A2F15803D9B257
:1014D000202967D8202B65D8DFE813F0DE006400F0
:1014E00064006400640064006400640064006400DC
:1014F0006400A3006E0064006400640064006E0079
:10150000640064006400640021007F00C000640087
:101510006400AE0064007F0064006400E50023689E
:101520001A0640F104812B686269191D29601B6845
:101530001A600023E1462361CDF800803B4603AAF0
:1015400021463046FFF71EFF013020D023694A466E
:1015500039463046C047013019D02368E068039906
:101560009B0719D5431A002B16DD04F11909002534
:1015700004E0E0680399431AAB420DDD01234A46BB
:1015800039463046C047013005F10105F1D14FF031
:10159000FF3005B0BDE8F0838842B8BF084605B00B
:1015A000BDE8F083012384F84220236104F142095D
:1015B000002384F84330BFE72368190602D45A0693
:1015C00000F1C18029680A68043129601146002AA7
:1015D0006BDBDFF884E10A2510E02368180640F190
:1015E0009C802B68191D29601968DFF86CE16F2A4F
:1015F0000CBF08250A25002384F843306268A260E6
:10160000002A7FDB236823F00403236000295BD1D9
:10161000002A79D1E146082D65D0ACEB090323619E
:101620008AE72B680122196804332B6004F1420910
:1016300084F842102261BBE72B686268191D29609B
:10164000D3F800900021484600F04AFB002800F043
:101650008180A0EB090060602061A9E7236843F066
:10166000200323607822DFF8F4E084F845202A681C
:10167000111D2960190643D45D0641D51188D8078C
:1016800044BF43F020032360002944D1236823F0A2
:10169000200323601025AEE7582384F84530DFF897
:1016A000B8E02368E3E72368DCE76268A2602D20E6
:1016B000002AC1F1000184F8430002DB23F0040397
:1016C0002360DFF894E00A25E146B1FBF5F305FB62
:1016D00013100A46AA421EF8001009F8011D194607
:1016E000F3D2082D99D12368D90796D5626823696A
:1016F0009A4292DC302309F8013C09F1FF398CE76A
:101700001168BCE70029DFD19EF8003084F8423030
:1017100004F142097FE710256DE713F0400F2B68B5
:1017200003F1040129600CBF196819885DE713F003
:10173000400F2B68626903F1040129601B6814BF24
:101740001A801A60F5E62A68B2F9001004322A609D
:101750000A463CE760687FE774410008884100085A
:1017600070B50E461446054608B18369CBB11A4BD5
:101770009C421BD0194B9C4224D0194B9C4208BF61
:10178000EC68A368013B002BA36015DAA2699342C1
:101790001ADBF0B20A2817D023685A1C22601E7088
:1017A00070BDFFF7BDFA0C4B9C42E3D16C68A36897
:1017B000013B002BA360E9DB23685A1C22601E70EA
:1017C000F0B270BDAC68DCE7224631462846BDE881
:1017D0007040FEF7D7BF00BF40410008204100081D
:1017E000004100081E4B70B51E6805460C460EB140
:1017F000B369CBB11B4B9C421CD01B4B9C4225D0E8
:101800001A4B9C4208BFF468A368013B002BA360FD
:1018100016DAA26993421BDBE8B20A2818D02368C3
:101820005A1C22601D7070BD3046FFF779FA0D4BCF
:101830009C42E2D17468A368013B002BA360E8DB03
:1018400023685A1C22601D70E8B270BDB468DBE7E3
:10185000224629463046BDE87040FEF793BF00BFE0
:1018600034000020404100082041000800410008E9
:1018700038B5074D0022044608462A6000F00AFCED
:10188000431C00D038BD2B68002BFBD0236038BD33
:10189000FC00002010B50C46B1F90E1000F0B2FBB0
:1018A000002803DB636D0344636510BDA38923F443
:1018B0008053A38110BD00BF002070472DE9F04187
:1018C0000C46B1F90C101F46CB05054616460BD445
:1018D00021F48051A1813B46B4F90E1032462846CE
:1018E000BDE8F04100F01EB8B4F90E10022300224A
:1018F00000F0DCF9B4F90C10EAE700BF10B50C46B3
:10190000B1F90E1000F0D2F9A389421C0EBF23F4E6
:10191000805343F480536065A38110BDB1F90E106C
:1019200000F016B838B50C46084D844611462046DE
:101930001A4600232B60644602F000F8431C00D0D6
:1019400038BD2B68002BFBD0236038BDFC00002085
:1019500038B5074D0022044608462A6000F072FBA5
:10196000431C00D038BD2B68002BFBD0236038BD52
:10197000FC00002070B50C46084D034600262046AA
:1019800011461C462E6000F065FB431C00D070BD64
:101990002B68002BFBD0236070BD00BFFC00002033
:1019A0009368002B00F081802DE9F04FB1F90C30E5
:1019B0000C461907804683B0174698B223D5236991
:1019C0000BB310F002033D682BD04FF0000ADFF894
:1019D000B4B256465E453346524628BF5B46404643
:1019E000002E4FD0216AD4F828C0E047002852DDED
:1019F000BB681B1A8244361ABB60002BEAD1002058
:101A000003B0BDE8F08F21464046FEF71FFF0028D7
:101A100040F03481B4F90C303D6898B210F0020304
:101A2000D3D110F0010942D14E463EB38205D4F81D
:101A300008B040F18180B3455A4600F2B18010F4FD
:101A4000906F40F0BE8020680192494600F032FA63
:101A5000A3682168019AA3EB0B030A44B246A36072
:101A600022600026B868A0EB0A00D144B8600028C4
:101A7000C5D0B4F90C0080B2002ED7D1D5E90096BC
:101A80000835D2E7D5E900A60835A3E72146404648
:101A9000FEF7E0FF80B3B4F90C3043F040034FF0A1
:101AA000FF30A38103B0BDE8F08F002070471E46D1
:101AB000AA46994618461D4656B388B34A46D4E905
:101AC00004132068B24228BF3246884205D9A16873
:101AD00003EB010B5A4500F3A780934264DC216AB3
:101AE000D4F828C02A464046E047B0F1000BD2DDCA
:101AF000B9EB0B09CAD00120BB68A3EB0B035D4413
:101B0000A6EB0B06BB60002B3FF479AF002ED4D1BF
:101B10000AF1080353E902569A460833002EF9D019
:101B200032460A21284600F0DBF8002800F09D80AC
:101B30000130A0EB0509C1E720682369984217D856
:101B40006369B34214D86FF00042B24228BF3246F4
:101B5000216A92FBF3F2D4F828C002FB03F340465B
:101B60004A46E047B0F1000A95DDA6EB0A0679E7A0
:101B7000B345DA4628BFB2465246494600F09AF9C4
:101B8000A3682268A3EB0A035244A3602260002BDF
:101B9000EBD121464046FEF75DFF0028E5D07AE70D
:101BA0002068B34632464FE72946019200F082F999
:101BB000019AA3689B1AA360236813442360934689
:101BC00096E723682169A3EB010B636903EB430AE2
:101BD0000AEBDA7A0BF101034FEA6A0A3344534500
:101BE000524684BF9A46524643052CD5114640467C
:101BF000FFF7E6F900283BD05A462169019000F032
:101C0000BFF8A289019B22F4906242F08002A28177
:101C100003EB0B002361AAEB0B03C4F814A0A36031
:101C20002060B34632460FE729465A4600F042F993
:101C300023685B44236021464046FEF70BFF0028E3
:101C40003FF456AF27E7404600F0B4F903460028BA
:101C5000DED121694046FFF755F9B4F90C300C226A
:101C600023F08003C8F8002017E7721C914626E78E
:101C70000C22B4F90C30C8F800200EE74FF0FF300A
:101C8000BEE600BF00FCFF7F38B5074D00220446CA
:101C900008462A6000F0E6F9431C00D038BD2B68E6
:101CA000002BFBD0236038BDFC00002038B50C466B
:101CB000084D8446114620461A4600232B60644690
:101CC00000F0D8F9431C00D038BD2B68002BFBD0A6
:101CD000236038BDFC000020000000000000000070
:101CE00001F0FF01102A2BDB10F0070F08D010F8CD
:101CF000013B013A8B422DD010F0070F42B3F6D1D1
:101D0000F0B441EA012141EA014122F007047FF0E9
:101D100000070023F0E80256083C85EA010586EA40
:101D2000010685FA47F5A3FA87F586FA47F6A5FA7C
:101D300087F68EB9EED1F0BC01F0FF0102F0070288
:101D400032B110F8013B013A83EA010313B1F8D133
:101D50000020704701387047002D06BF3546033814
:101D6000073815F0010F07D1013015F4807F02BF4D
:101D7000013015F4C03F0130F0BC0138704700BF9E
:101D8000844641EA000313F003036DD1403A41D386
:101D900051F8043B40F8043B51F8043B40F8043B45
:101DA00051F8043B40F8043B51F8043B40F8043B35
:101DB00051F8043B40F8043B51F8043B40F8043B25
:101DC00051F8043B40F8043B51F8043B40F8043B15
:101DD00051F8043B40F8043B51F8043B40F8043B05
:101DE00051F8043B40F8043B51F8043B40F8043BF5
:101DF00051F8043B40F8043B51F8043B40F8043BE5
:101E000051F8043B40F8043B51F8043B40F8043BD4
:101E1000403ABDD2303211D351F8043B40F8043B74
:101E200051F8043B40F8043B51F8043B40F8043BB4
:101E300051F8043B40F8043B103AEDD20C3205D384
:101E400051F8043B40F8043B043AF9D2043208D07C
:101E5000D2071CBF11F8013B00F8013B01D30B88EE
:101E600003806046704700BF082A13D38B078DD0CC
:101E700010F003038AD0C3F10403D21ADB071CBF9E
:101E800011F8013B00F8013B80D331F8023B20F808
:101E9000023B7BE7043AD9D3013A11F8013B00F841
:101EA000013BF9D20B7803704B7843708B788370C9
:101EB0006046704788420DD98B1883420AD900EBDF
:101EC000020CBAB1624613F801CD02F801CD994275
:101ED000F9D170470F2A0ED8034602F1FF3C4AB1F0
:101EE0000CF1010C013B8C4411F8012B03F8012F7C
:101EF0006145F9D1704740EA01039B0750D1A2F137
:101F0000100370B501F1200C23F00F0501F1100E44
:101F100000F11004AC441B095EF8105C44F8105C3E
:101F20005EF80C5C44F80C5C5EF8085C44F8085CF5
:101F30005EF8045C44F8045C0EF1100EE64504F112
:101F40001004E9D1013312F00C0F01EB031102F080
:101F50000F0400EB031327D0043C24F003064FEAE0
:101F6000940C1E441C1F8E465EF8045B44F8045F0C
:101F7000B442F9D10CF1010402F0030203EB840333
:101F800001EB840102F1FF3C4AB10CF1010C013B71
:101F90008C4411F8012B03F8012F6145F9D170BD74
:101FA00002F1FF3C03469BE72246EBE7704700BF88
:101FB000704700BFF8B51446F9B1CAB106460D46E0
:101FC00000F036F8A04202D32F463846F8BD21462D
:101FD0003046FEF7F5FF07460028F6D02246294690
:101FE000FFF7CEFE30462946FEF78CFF3846F8BD97
:101FF0002746FEF787FF3846F8BDBDE8F840114692
:10200000FEF7DEBF38B50C46084D84461146204623
:102010001A4600232B60644600F034F8431C00D0BD
:1020200038BD2B68002BFBD0236038BDFC0000209E
:1020300051F8040C0028A0F10400BCBF0B58C018D4
:10204000704700BF024B58221A604FF0FF307047B4
:10205000FC000020024B58221A604FF0FF307047FE
:10206000FC000020024B58221A600020704700BF7D
:10207000FC000020024B58221A604FF0FF307047DE
:10208000FC000020024B58221A604FF0FF307047CE
:10209000FC000020044A05491368002B08BF0B46CA
:1020A0001844106018467047000100200801002005
:1020B00080B500AF1E4B1B681D4A43F4AA73136022
:1020C00000F012F90121012000F00EFA00BF00F02B
:1020D0006CF90346002BFAD02321022000F098FA75
:1020E0000121022000F000FA00BF192000F036F9AB
:1020F0000346012BF9D1002000F048FA042000F03B
:1021000071FA042000F058FA012000F089FC022046
:1021100000F02CFB00BF00F03FFB0346022BFAD17E
:10212000002000F07DFC01F0F9FA00BF80BD00BF87
:102130000020024080B400AF00BFBD4680BC7047A5
:1021400080B400AFFEE780B400AFFEE780B400AF1C
:10215000FEE780B400AFFEE780B400AF00BFBD462D
:1021600080BC704780B400AF00BFBD4680BC7047E4
:1021700080B400AF00BFBD4680BC704780B400AFE4
:1021800000BFBD4680BC704780B584B000AF012160
:102190004FF4C01000F02EF90021002000F0FCFDEB
:1021A0003B1D184600F056FC01237B7300233B7156
:1021B0000123BB6000233B733B1D184600F060FC0D
:1021C000032001F0DAF800220021062001F0B4F823
:1021D00000BF1037BD4680BD80B500AF052001F0BF
:1021E000EDFC012000F0B0FC01210B4800F06EFD79
:1021F0000346012B0AD1094B1B78042B03D1074B53
:1022000001221A7002E0054B04221A702A20FEF700
:102210002DFA00BF80BD00BF000801400000002073
:1022200080B500AFFFF7D8FF00BF80BD80B582B09A
:1022300000AF7860022001F079FC0448FEF79AFABA
:1022400041F2883001F0BAFCF4E700BF34400008E6
:1022500080B584B002AFFFF72BFF01F0C7FBFFF79B
:1022600093FF01F05FFE1948FEF784FA002001F0A9
:102270005DFC1748FEF77EFA01F0A4FE03461946FE
:102280001448FEF7C7F941F2883001F097FC4FF689
:10229000FF7300930323104AA021104801F0BAFDF8
:1022A0000346FB71FB79002B09D0FB7919460C48DA
:1022B000FEF7B0F9FB791846FFF7B8FFD6E7FB79D0
:1022C00019460848FEF7A6F9D0E700BF3C400008D1
:1022D000444000084840000804000020BC000020E2
:1022E000504000086440000880B400AF1A4A1368E8
:1022F00043F00103136000BF174B1B68C3F3400397
:10230000DBB2012BF8D1144A53686FF30103536019
:1023100000BF114B5B68C3F38103DBB2002BF8D124
:102320000D4B1B680C4A23F0867323F48033136033
:10233000094B00225A60084B41F61072DA62064BD4
:102340004FF480121A63044B4FF41F029A6000BFCF
:10235000BD4680BC704700BF0010024080B485B00D
:1023600000AF78600023FB737B681B0C03F1804394
:1023700003F504331A687B6803F01F03012101FA97
:1023800003F31A407B6803F01F03012101FA03F3F2
:102390009A4202D00023FB7301E00123FB73FB7B15
:1023A00018461437BD4680BC704780B582B000AF78
:1023B00000237B600023FB7002E07B6801337B60BD
:1023C0001120FFF7CBFF0346012B03D07B68B3F549
:1023D000405FF2D31120FFF7C1FF0346012B02D06B
:1023E0000023FB7001E00123FB70FB7818460837DF
:1023F000BD4680BD80B483B000AF78600B46FB70F3
:10240000FB78012B16D17B681B0C03F1804303F58D
:10241000043319687B6803F01F0301229A407B682C
:102420001B0C03F1804303F50433184641EA020311
:10243000036017E07B681B0C03F1804303F5043352
:1024400019687B6803F01F03012202FA03F3DA43E1
:102450007B681B0C03F1804303F50433184601EA43
:102460000203036000BF0C37BD4680BC704780B4D8
:1024700083B000AF78600B46FB70FB78012B16D160
:102480007B681B0C03F1804303F5043319687B68F8
:1024900003F01F0301229A407B681B0C03F1804369
:1024A00003F50433184641EA0203036017E07B6832
:1024B0001B0C03F1804303F5043319687B6803F0B8
:1024C0001F03012202FA03F3DA437B681B0C03F1BA
:1024D000804303F50433184601EA0203036000BF9A
:1024E0000C37BD4680BC704780B483B000AF034654
:1024F0000A46FB711346BB71FB79042B3ED801A23F
:1025000052F823F0192500082D2500084125000860
:1025100055250008692500081B4ABB7903F0010313
:10252000D9B2136861F30003136028E0164ABB793F
:1025300003F00103D9B2136861F3104313601EE086
:10254000114ABB7903F00103D9B2136861F3186330
:10255000136014E00C4ABB7903F00103D9B2136A8B
:1025600061F3000313620AE0074ABB7903F0010339
:10257000D9B2536A61F30003536200E000BF00BFA9
:102580000C37BD4680BC70470010024080B483B059
:1025900000AF0346FB71074AFB7903F00F03D9B282
:1025A000536861F30713536000BF0C37BD4680BC0E
:1025B000704700BF0010024080B483B000AF0346F4
:1025C000FB71074AFB7903F00703D9B2536861F343
:1025D0000A23536000BF0C37BD4680BC704700BF64
:1025E0000010024080B483B000AF0346FB71074A7D
:1025F000FB7903F00703D9B2536861F3CD2353602D
:1026000000BF0C37BD4680BC704700BF00100240C1
:1026100080B485B000AF03460A46FB711346BB7118
:102620000023FB600023FB72FB79002B07D1404A9B
:1026300053686FF3104353603E4BFB6016E03C4A17
:10264000536843F480335360FB79012B07D13A4B35
:10265000FB60374A53686FF35143536006E0354BD4
:10266000FB60334A536843F400335360FB68334ADA
:10267000934206D9FB68324A934202D80023FB7288
:1026800035E0FB682F4A934206D9FB682E4A9342F5
:1026900002D80123FB722AE0FB682C4A934206D938
:1026A000FB682B4A934202D80223FB721FE0FB68AF
:1026B000284A934206D9FB68274A934202D803234B
:1026C000FB7214E0FB68254A934206D9FB68244A52
:1026D000934202D80423FB7209E0FB68214A93422B
:1026E00005D9FB68204A934201D80523FB72104AA2
:1026F000BB7903F00F03D9B2536861F3954353607C
:10270000BB791B110A4A03F00303D9B2536861F382
:102710005E735360064AFB7A03F00703D9B2D36AAB
:1027200061F31A63D36200BF1437BD4680BC7047A3
:102730000010024000093D0000127A0060823B0058
:102740003F4B4C0080584F000F5E5F009435770080
:102750000F1B7F00101B7F001FBCBE00286BEE000C
:102760002FD73D0130D73D01D7E9DC0180B483B0DC
:1027700000AF0346FB71074AFB7903F00303D9B2AC
:10278000536861F30103536000BF0C37BD4680BC42
:10279000704700BF0010024080B400AF044B5B687C
:1027A000C3F38103DBB21846BD4680BC704700BF4F
:1027B000001002402DE9B04F8EB000AFF86000234A
:1027C0007B630023FB620023BB6200237B62002348
:1027D0003B6200233B630023FB610023BB610023BA
:1027E0007B61FFF7D9FF0346FB74FB7C022B21D0F2
:1027F000022B00F3AE80002B02D0012B16D0A8E0F4
:102800007F4B5B6DC3F34023DBB2002B0AD07C4BC4
:102810001B6BC3F34063DBB2002B03D0FB68794A28
:102820001A609AE0FB68784A1A6096E0FB68764A7C
:102830001A6092E0724B5B68C3F30043DBB2BB6289
:102840006F4BDB6AC3F3C073DBB2002B3AD16C4B26
:102850005B68C3F38343DBB27B63694B5B68C3F3A1
:102860004173DBB2FB62FB6A002B02D17B6B0F2B47
:1028700006D1FB6A1A017B6B134401337B6302E0D0
:102880007B6B02337B63BB6A002B06D17B6B5F4A99
:1028900003FB02F2FB681A605FE0594B5B68C3F30D
:1028A0004043DBB2002B06D07B6B584A03FB02F29D
:1028B000FB681A6051E07B6B534A03FB02F2FB6832
:1028C0001A604AE04E4BDB6AC3F30313DBB2FB61D1
:1028D0004B4BDB6AC3F308239BB2BB61484BDB6AFB
:1028E000C3F30203DBB27B61BB6A002B02D1474B0F
:1028F0003B630BE0424B5B68C3F34043DBB2002B0E
:1029000002D0424B3B6301E03F4B3B633B6B0022F9
:102910009A469346BB6900229846914608FB0BF203
:102920000AFB09F31344AAFB08452B441D46FA6928
:102930007B6902FA03F300223B607A60D7E9002347
:1029400020462946FDF758FC02460B46FB681A60F4
:1029500003E0FB682C4A1A6000BF294B5B68C3F395
:102960000313DBB27B622A4A7B6A13441B783B6207
:10297000FB681A683B6ADA40FB685A60204B5B6868
:10298000C3F30223DBB27B62224A7B6A13441B78C7
:102990003B62FB685A683B6ADA40FB68DA60184BB6
:1029A0005B68C3F3C223DBB27B621B4A7B6A1344BE
:1029B0001B783B62FB685A683B6ADA40FB689A60A6
:1029C0000F4B5B68C3F30073DBB27B627B6A9B00D7
:1029D0000B4A5268C2F38132D2B213437B620F4A70
:1029E0007B6A13441B783B62FB689A683B6AB2FBC4
:1029F000F3F2FB681A6100BF3837BD46BDE8B08FFF
:102A000000100240006CDC0200127A0000093D0058
:102A10008840000898400008A0400008A84000082E
:102A200080B483B000AF0346FB71FB79012B05D165
:102A3000074A536D43F03003536504E0044A536D75
:102A40006FF30513536500BF0C37BD4680BC70475C
:102A50000010024080B483B000AF78607B68002231
:102A60005A727B6800225A607B6801221A727B6866
:102A700001221A7000BF0C37BD4680BC70470000B1
:102A800080B485B000AF78600023FB607B685B6832
:102A9000FB602C4B1A68FB68DB432A4913400B6030
:102AA000284B5A68FB68DB43264913404B607B6820
:102AB0005B7A002B40D07B681B78002B06D1214B22
:102AC0001A682049FB6813430B6005E01D4B5A68E8
:102AD0001C49FB6813434B601A4B9A68FB68DB4345
:102AE000184913408B60174BDA68FB68DB431549C4
:102AF0001340CB607B681B7A002B06D1114B9A6880
:102B00001049FB6813438B6016E07B681B7A012B2E
:102B100006D10C4BDA680B49FB681343CB600BE022
:102B2000084B9A680749FB6813438B60054BDA68CA
:102B30000449FB681343CB6000BF1437BD4680BC1B
:102B4000704700BF0004014080B483B000AF7860DC
:102B5000034A7B68536100BF0C37BD4680BC704799
:102B60000004014080B485B000AF786039603B68F4
:102B70001B683B813B689B79032B02D100237B813F
:102B800030E03B689B79002B15D13B685B799BB2A9
:102B900003F00F037B813B685B79182B03D13A89E3
:102BA0007B681A611EE03B685B79282B1AD13A8951
:102BB0007B685A6116E03B689B791BB203F00803FF
:102BC0001AB23B681B791BB203F004031BB2134318
:102BD0001AB23B68DB791BB203F003031BB2134349
:102BE0001BB27B813B89DBB2002B25D00023FB602D
:102BF0001FE03A89FB6842FA03F303F00103002B5C
:102C000014D07B681B68FA6892000F2101FA02F267
:102C1000D2431A407B681A607B681B687989FA681E
:102C2000920001FA02F21A437B681A60FB680133D2
:102C3000FB60FB68072BDCD93B89FF2B28D93B893C
:102C40001B0A3B810023FB601FE03A89FB6842FAC4
:102C500003F303F00103002B14D07B685B68FA6870
:102C600092000F2101FA02F2D2431A407B685A60A7
:102C70007B685B687989FA68920001FA02F21A436C
:102C80007B685A60FB680133FB60FB68072BDCD96B
:102C900000BF1437BD4680BC704780B483B000AF1E
:102CA00078607B684FF6FF721A607B6800229A7129
:102CB0007B6800221A717B6804225A717B680122AA
:102CC000DA7100BF0C37BD4680BC704780B485B058
:102CD00000AF78600B467B800023FB737A8879888D
:102CE0007B689B680B409A4202D00023FB7301E093
:102CF0000123FB73FB7B18461437BD4680BC70472D
:102D000080B487B000AF78600B46FB707B681B0E09
:102D100003F1804303F580337B617B681B0CFB74FC
:102D20007B681B0ABB747B687B74BB7CC3F120028D
:102D3000FB7CD31A4FF0FF3202FA03F3FB60BB7C3B
:102D4000C3F12002FB7CD31AFA6822FA03F3FB607A
:102D5000FB7CFA6822FA03F3FB60FB7CFA6802FA58
:102D600003F3FB607B691968FB68DA437B690A40FF
:102D70001A60FB78002B09D07B691A68797CFB7C90
:102D800001FA03F319467B690A431A6000BF1C3736
:102D9000BD4680BC7047000080B485B000AF0346DC
:102DA0000A46FB711346BB710023FB60BB7903F03D
:102DB00003039B000F2202FA03F3FB60BB799B081D
:102DC000DBB2032B5AD801A252F823F0DD2D000804
:102DD000052E00082D2E0008552E00082A4B9A6853
:102DE000FB68DB43284913408B60274B9A68F979CD
:102DF000BB7903F003039B0001FA03F32249134359
:102E00008B603CE0204BDA68FB68DB431E491340D3
:102E1000CB601D4BDA68F979BB7903F003039B00A3
:102E200001FA03F318491343CB6028E0164B1A69E3
:102E3000FB68DB43144913400B61134B1A69F979A2
:102E4000BB7903F003039B0001FA03F30E4913431C
:102E50000B6114E00C4B5A69FB68DB430A491340D1
:102E60004B61094B5A69F979BB7903F003039B0065
:102E700001FA03F3044913434B6100E000BF00BFB4
:102E80001437BD4680BC70470000014080B582B059
:102E900000AF78607B680E4A934208D101210D484B
:102EA000FFF7E5FA00210B48FFF7E1FA0BE07B683A
:102EB000094A934207D101210848FFF7D8FA0021B7
:102EC0000648FFF7D4FA00BF0837BD4680BD00BFF3
:102ED000005400401500100000580040160010007B
:102EE00080B58CB000AFF8600B467A60FB720023AF
:102EF000FB6200233B8500237B85FA6813686FF330
:102F00000003136007F114031846FFF753FCFB6836
:102F10004A4A934203D0FB68494A934201D13B6A33
:102F2000FB62FB6A474AA2FB03239B0C3B853B8D5C
:102F3000D9B2FA68536861F3070353607B68424A69
:102F400093422ED87B685B00FA6AB2FBF3F37B8571
:102F50007B8D032B01D804237B857B8DC3F30B036F
:102F600099B2FA68D36961F30B03D361FA68D36944
:102F70006FF3CF33D3613B8D3E2B05D9FA68136ACB
:102F800043F03F03136255E03B8DDBB20133DBB20C
:102F900003F03F03D9B2FA68136A61F305031362C1
:102FA00048E0FB7A002B0DD17A6813465B0013448E
:102FB000FA6AB2FBF3F37B85FA68D3696FF38E3359
:102FC000D3610EE07A6813469B0013449A001344C1
:102FD000FA6AB2FBF3F37B85FA68D36943F4804362
:102FE000D3617B8D002B01D101237B857B8DC3F3C6
:102FF0000B0399B2FA68D36961F30B03D361FA68E2
:10300000D36943F40043D3613B8D4FF4967202FBC6
:1030100003F30E4A82FB03129211DB17D31ADBB2C1
:103020000133DBB203F03F03D9B2FA68136A61F3EC
:103030000503136200BF3037BD4680BD0054004019
:103040000058004083DE1B43A0860100D34D621070
:1030500080B483B000AF78600B46FB7013463B80B2
:10306000FB7803F00103D9B27A68936861F3CF3338
:1030700093603B88C3F3090399B27A68936861F35C
:103080000903936000BF0C37BD4680BC704780B415
:1030900083B000AF78600B46FB70FB7803F0010350
:1030A000D9B27A68136861F30003136000BF0C376C
:1030B000BD4680BC704780B483B000AF78600B46DB
:1030C000FB70FB7803F00103D9B27A68136861F3EF
:1030D000CB23136000BF0C37BD4680BC704780B463
:1030E00083B000AF78607A68136843F4807313602C
:1030F00000BF0C37BD4680BC704780B483B000AFC2
:1031000078607A68136843F40073136000BF0C376B
:10311000BD4680BC704780B483B000AF78600B467A
:10312000FB701346BB70BB78002B05D1FB7803F016
:10313000FE027B681A6106E0FB7843F00103DBB214
:103140001A467B681A6100BF0C37BD4680BC7047C9
:1031500080B483B000AF78600B46FB70FA787B6870
:103160001A6100BF0C37BD4680BC704780B485B083
:1031700000AF786039600023FB600023BB603B68D0
:103180001B0FFB603B6823F07F433B60FB68002B19
:1031900003D17B685B69BB6005E03B681B0C3B604F
:1031A0007B689B69BB60BA683B681340002B01D009
:1031B000012300E0002318461437BD4680BC704749
:1031C00080B483B000AF786039603B689BB2DB436A
:1031D0009BB21A467B685A6100BF0C37BD4680BC63
:1031E0007047000080B485B000AF78607B6803F062
:1031F0000703FB600C4BDB68BB60BA684FF6FF034C
:103200001340BB60FB681A02BB68134343F0BF6303
:1032100043F40033BB60044ABB68D36000BF14377B
:10322000BD4680BC704700BF00ED00E080B400AF39
:10323000044BDB681B0A03F007031846BD4680BC3D
:10324000704700BF00ED00E080B483B000AF0346DC
:10325000FB7197F90730002B0BDBFB7903F01F02A2
:10326000064997F907305B09012000FA02F241F89C
:10327000232000BF0C37BD4680BC704700E100E052
:1032800080B483B000AF03463960FB7197F9073013
:10329000002B0ADB3B68DAB20C4997F907301201C0
:1032A000D2B20B4483F800230AE03B68DAB2084943
:1032B000FB7903F00F03043B1201D2B20B441A76E0
:1032C00000BF0C37BD4680BC704700BF00E100E086
:1032D00000ED00E080B489B000AFF860B9607A60BA
:1032E000FB6803F00703FB61FB69C3F10703042BD1
:1032F00028BF0423BB61FB690433062B02D9FB6999
:10330000033B00E000237B614FF0FF32BB6902FA10
:1033100003F3DA43BB681A407B699A404FF0FF31F0
:103320007B6901FA03F3D9437B680B4013431846CA
:103330002437BD4680BC704780B586B000AF0346D9
:10334000B9607A60FB7300237B61FFF76FFF034670
:103350007A68B9681846FFF7BDFF786197F90F30B2
:1033600079691846FFF78CFF97F90F301846FFF779
:103370006BFF00BF1837BD4680BD80B582B000AF7F
:103380000346FB71FB791846FFF72CFF00BF083797
:10339000BD4680BD80B483B000AF0346FB71FB79AE
:1033A000042B06D1084B1B68074A43F00403136043
:1033B00005E0054B1B68044A23F00403136000BFBB
:1033C0000C37BD4680BC704710E000E080B483B08D
:1033D00000AF78600B46FB70FB7803F00103D9B2B5
:1033E0007A68136861F30003136000BF0C37BD46B1
:1033F00080BC704780B485B000AFF860B9607A6077
:10340000FB68BA68DA62FB687A689A62FA6853699C
:1034100043F00103536100BF1437BD4680BC7047C1
:1034200080B483B000AF78600B46FB70FB7803F08C
:103430000703D9B27A68136861F30613136000BFFB
:103440000C37BD4680BC704780B485B000AFF860D3
:10345000B9601346FB71FB79012B06D1FB68DA6872
:10346000BB681A43FB68DA6009E0FB79002B06D1E0
:10347000FB68DA68BB68DB431A40FB68DA6000BFB0
:103480001437BD4680BC704780B485B000AF78600B
:1034900039600023FB737B681A693B681340002B7B
:1034A00002D00123FB7301E00023FB73FB7B184672
:1034B0001437BD4680BC704780B483B000AF7860DD
:1034C00039603B68DA437B681A6100BF0C37BD4640
:1034D00080BC704780B58CB000AFF860B960114611
:1034E0001A460B46FB711346BB7107F114031846CD
:1034F000FFF760F9FB68244A934202D1FB69FB6243
:1035000001E03B6AFB62FA6A13469B0013445B00CE
:103510001A46BB68B2FBF3F3BB62B96A1B4BA3FB51
:103520000123DA0813469B0013445B00CA1A042ADD
:1035300006D8BB6A154AA2FB0323DB08BB6206E080
:10354000BB6A124AA2FB0323DB080133BB62BB6ADE
:1035500099B2FA68936861F30F039360FB7903F003
:103560000103D9B2FA68D36861F30C33D360BB7935
:1035700003F00303D9B2FA68136961F30D331361E1
:1035800000BF3037BD4680BD00380140CDCCCCCC2B
:1035900080B483B000AF78600B46FB70FB7803F01B
:1035A0000103D9B27A68D36861F34D33D36000BFA9
:1035B0000C37BD4680BC704780B483B000AF7860E4
:1035C0000B46FB70FB7803F00103D9B27A68D3682D
:1035D00061F3C303D36000BF0C37BD4680BC7047A6
:1035E00080B483B000AF78600B467B807B88C3F3E8
:1035F00008027B685A6000BF0C37BD4680BC70472C
:1036000080B483B000AF786039607B681A683B682B
:103610001340002B01D0012300E0002318460C3793
:10362000BD4680BC70470000002103E00B4B5B5897
:10363000435004310A480B4B42189A42F6D30A4AC7
:1036400002E0002342F8043B084B9A42F9D300F011
:1036500011F8FCF753FFFEF7FBFD7047AC41000883
:1036600000000020980000209800002004010020A5
:10367000FEE7000080B400AF254AD36943F08053D1
:10368000D361244B1B78DBB2224A43F00403DBB244
:1036900013701F4AD3696FF31C73D3611C4A1368FC
:1036A00043F00103136000BF194B1B68C3F34003D1
:1036B000DBB2012BF8D1164A53686FF30103536054
:1036C00000BF134B5B68C3F38103DBB2002BF8D15F
:1036D0000F4B1B680E4A23F0867323F4803313606C
:1036E0000B4B00225A600A4B41F61072DA62084B0B
:1036F0004FF480121A63064B4FF41F029A60064B78
:103700004FF000629A6000BFBD4680BC704700BFAA
:10371000001002405070004000ED00E02DE9B04F75
:103720008CB000AF0023FB6200237B6200233B626E
:103730000023FB610023BB610023BB6200237B618C
:1037400000233B610023FB60FFF726F80346FB7272
:10375000FB7A022B21D0022B00F3AE80002B02D08B
:10376000012B16D0A8E0624B5B6DC3F34023DBB2A4
:10377000002B0AD05E4B1B6BC3F34063DBB2002B04
:1037800003D05C4B5C4A1A609AE05A4B5B4A1A6061
:1037900096E0584B594A1A6092E0554B5B68C3F368
:1037A0000043DBB23B62524BDB6AC3F3C073DBB254
:1037B000002B3AD14E4B5B68C3F38343DBB2FB6211
:1037C0004B4B5B68C3F34173DBB27B627B6A002BBC
:1037D00002D1FB6A0F2B06D17B6A1A01FB6A1344E4
:1037E0000133FB6202E0FB6A0233FB623B6A002B9F
:1037F00006D1FB6A424A02FB03F33E4A13605FE0D4
:103800003B4B5B68C3F34043DBB2002B06D0FB6A43
:103810003B4A02FB03F3374A136051E0FB6A374A25
:1038200002FB03F3334A13604AE0314BDB6AC3F314
:103830000313DBB27B612E4BDB6AC3F308239BB21D
:103840003B612B4BDB6AC3F30203DBB2FB603B6AD9
:10385000002B02D12A4BBB620BE0254B5B68C3F304
:103860004043DBB2002B02D0254BBB6201E0234B6F
:10387000BB62BB6A00229A4693463B690022984687
:10388000914608FB0BF20AFB09F31344AAFB084517
:103890002B441D467A69FB6802FA03F300223B6061
:1038A0007A60D7E9002320462946FCF7A5FC0246AA
:1038B0000B46104B1A6003E00E4B104A1A6000BF13
:1038C0000B4B5B68C3F30313DBB2FB610D4AFB696F
:1038D00013441B78BB61074B1A68BB6922FA03F3D8
:1038E000044A136000BF3037BD46BDE8B08F00BF4B
:1038F000001002400C000020006CDC0200127A0074
:1039000000093D00B040000880B582B000AF78608B
:1039100000BF80210848FFF773FE0346002BF8D054
:103920007B689BB219460448FFF75AFE7B6818462D
:103930000837BD4680BD00BF0038014080B586B065
:1039400000AFF860B9607A6000237B6109E0BB6872
:103950005A1CBA601B781846FFF7D6FF7B69013303
:103960007B617A697B689A42F1DB00BF18461837A1
:10397000BD4680BD80B584B000AF78600121174896
:10398000FEF738FD01211648FEF734FD07F1080364
:103990001846FFF782F90123FB7300233B730823CA
:1039A000BB734FF40073BB6004237B7307F1080300
:1039B00019460C48FFF7D6F80023002279680A4818
:1039C000FFF788FD01210848FFF7F6FD01210648B1
:1039D000FFF7DEFD00BF1037BD4680BD0E001800AA
:1039E00002001800000801400038014080B500AF17
:1039F00000F0C4F8002000F043F8012000F040F887
:103A0000022000F03DF8002000F06EF8012000F0E8
:103A10006BF8022000F068F800F010F84FF4E13085
:103A2000FFF7A8FF034B044A1A60024800F068F948
:103A300000BF80BDBC0000200054004080B582B0B3
:103A400000AF01210C48FEF7D5FC3B461846FFF7B6
:103A500024F90123FB7100233B710023BB71012377
:103A60003B6028237B713B4619460448FFF77AF8F0
:103A700000BF0837BD4680BD0200180000080140A5
:103A800080B584B000AF0346FB71FB79134A52F84E
:103A9000233001211846FEF7ADFC07F10803184654
:103AA000FFF7FBF80123FB7300233B731023BB7369
:103AB000FB790B4A32F81330BB6004237B73FB792C
:103AC000084A52F8233007F1080211461846FFF75A
:103AD00049F800BF1037BD4680BD00BF240000205C
:103AE0001C0000201000002080B483B000AF03460B
:103AF000FB71FB79022B10D8FB790A4A32F813309C
:103B0000002B0BD0FB79074A32F81310FB79064AD9
:103B100052F823300A461A6100E000BF0C37BD4658
:103B200080BC70471C0000201000002080B483B0CF
:103B300000AF0346FB71FB79022B16D8FB790D4AC7
:103B400032F81330002B11D0FB790B4A52F8233096
:103B5000DA68FB79074931F813301846FB790649D2
:103B600051F823304240DA6000E000BF0C37BD4618
:103B700080BC70471C0000201000002080B500AF02
:103B80000420FFF707FC094B1B68094AA2FB03232B
:103B90009B0C084A1360074B1B684FF47A7202FBB8
:103BA00003F3054A136000BF80BD00BF0C00002076
:103BB00083DE1B43B4000020B800002080B485B031
:103BC00000AF0346FB800023FB6035E0FB88322B0F
:103BD0000AD91E4B1B681E4A322101FB03F35360B6
:103BE000FB88323BFB8008E0FB88184A12681849C2
:103BF00002FB03F34B600023FB80154B00229A600D
:103C0000134B1B68124A43F001031360104B1B68EF
:103C1000FB60FB6803F00103002B04D0FB6803F496
:103C20008033002BF2D00A4B1B68094A23F00103B2
:103C30001360074B00229A60FB88002BC6D100BF9F
:103C400000BF1437BD4680BC704700BFB8000020DD
:103C500010E000E080B584B000AF78607B681B683E
:103C6000214A93423CD101212048FEF7C3FB0121A8
:103C70001F48FEF7BFFB01211D48FEF7BBFB0121DA
:103C80004FF4C010FEF7B6FB01211A48FFF738F8D1
:103C900004233B7318237B730823BB730223FB733A
:103CA0004FF48073BB6007F1080319461248FEF712
:103CB00059FF4FF40073BB6007F1080319460E4823
:103CC000FEF750FF7B681B680C4A00211846FFF77F
:103CD00007F97B681B68A02200211846FFF7B8F996
:103CE00000BF1037BD4680BD0054004015001C00C9
:103CF0000300180001040428000C0140A086010004
:103D000080B582B000AF78607B681B681846FFF70B
:103D1000BDF87868FFF79EFF7B681B680121184695
:103D2000FFF7B5F900BF0837BD4680BD80B584B048
:103D300000AFF860B9607A603B60BB68344A934278
:103D400057D109E03B685A1E3A60002B04D1FB684A
:103D500012221A76122356E0FB681B68B9681846CF
:103D6000FFF704FA0346002BECD14BE07B6803F02D
:103D70000103002B1AD0FB681B684FF480611846C2
:103D8000FFF7F4F90346002B10D0FB681B681846B8
:103D9000FFF7B3F9FB681B684FF480611846FFF723
:103DA0000FFAFB6811221A7611232CE07B6803F0CE
:103DB0000203002B13D0FB681B6810211846FFF785
:103DC000D5F90346002B0AD0FB681B681021184662
:103DD000FFF7F6F9FB6810221A76102313E03B6810
:103DE0005A1E3A60002B04D1FB6812221A76122365
:103DF00009E0FB681B68B9681846FFF7B7F9034686
:103E0000002BB3D0002318461037BD4680BD00BF3D
:103E10000000021080B584B000AFF8607A601A46E6
:103E20000B467B8113463B81FB687A685A60FB68CE
:103E30003A891A81FB6800221A76BB69002235494B
:103E4000F868FFF773FF0346002B01D001235CE005
:103E50003148FCF78FFCFB681B6800211846FFF710
:103E60002AF9FB681B681846FFF739F9BB6900227D
:103E70000121F868FFF75AFF0346002B04D0FB68C6
:103E80000D221A760D2340E0FB681B687A89D1B2B7
:103E900000221846FFF73FF9BB6901220221F868AA
:103EA000FFF744FF0346002B04D0FB680F221A766D
:103EB0000F232AE0BB6901228021F868FFF736FF53
:103EC0000346002B06D0FB681B681846FFF715F960
:103ED00003231AE01148FCF74DFC9921F868FFF71D
:103EE00037F9BB6901228021F868FFF71FFF0346FD
:103EF000002B06D0FB681B681846FFF7FEF803236B
:103F000003E00748FCF736FC002318461037BD468F
:103F100080BD00BF00000210C0400008D44000086F
:103F2000E840000880B586B000AF3B1D00221A6053
:103F30005A609A60DA601A613B1D1846FEF73AFC37
:103F400001211448FEF756FABB68134AA2FB03236B
:103F50005B0B013B1A4642F20F711048FFF74AFA19
:103F600000210E48FFF75CFA012201210B48FFF700
:103F70006BFA0320FFF701FA002200211920FFF756
:103F8000DBF901210548FFF721FA00BF1837BD46CC
:103F900080BD00BF0B0018005917B7D1002C01409D
:103FA00080B500AF01210648FFF76EFA0346002BEB
:103FB00003D001210248FFF77FFA00BF80BD00BF98
:103FC000002C014080B485B000AF114B1B68FB6032
:103FD000104B1B68BB60104B1B687B60FB68C3F316
:103FE0001002FB685B0A03F4F0031A43BB685B052D
:103FF00003F4C0031A437B681B02DB0DDB0513438C
:104000003B603B6818461437BD4680BC704700BF14
:10401000E8F7FF1FECF7FF1FF0F7FF1FF8B500BF31
:10402000F8BC08BC9E467047F8B500BFF8BC08BC99
:044030009E467047F1
:104034006572726F72210D0068656C6C6F0D000003
:10404400476F0D00253034580D0A00006932635F54
:104054007374617475733A2025640D0A00000000BE
:104064006932632072656164206F6E6365207375C5
:104074006363656564202564202D2D2D2D2D2D2D44
:104084000D0A00000000000000000000010203040B
:1040940006070809000000000102030400000000F4
:1040A4000102030402040608020C081000000000C8
:1040B4000000000001020304060708096275737911
:1040C40020666C61672072657365740D00000000E2
:1040D400317374207464626520666C616720736553
:1040E400740D000020326E64207464626520666C76
:1040F4006167207365740D00380000200000000023
:1041040000000000000000000000000000000000AB
:10411400000000000000000000000000000000009B
:10412400000000000000000000000000000000008B
:10413400000000000000000000000000000000007B
:10414400000000000000000000000000000000006B
:10415400000000000000000000000000232D302BB0
:1041640020000000686C4C00656667454647000007
:104174003031323334353637383941424344454699
:10418400000000003031323334353637383961625B
:08419400636465660000000091
:08419C008CC0FF7F0100000050
:0441A400D901000835
:0441A800B101000859
:1041AC0004000000010203040506070800127A004F
:1041BC0000100140001001400010014004000800F4
:1041CC00200000000400180004001800040018006F
:1041DC0001000000380000200000000040410008F1
:1041EC002041000800410008000000000000000011
:1041FC0000000000000000000000000000000000B3
:10420C0000000000000000000000000000000000A2
:10421C000000000000000000000000000000000092
:10422C000000000000000000000000000000000082
:08423C0000000000000000007A
:040000050800362990
:00000001FF
