:020000040800F2
:1000000000800020C91A0008E5050008F105000875
:10001000F7050008FD0500080306000800000000C1
:1000200000000000000000000000000009060008B9
:100030001506000800000000210600082D06000833
:10004000111B0008111B0008111B0008111B0008E0
:10005000111B0008111B0008D1060008111B000825
:10006000111B0008111B0008111B0008111B0008C0
:10007000111B0008111B0008111B0008111B0008B0
:10008000111B0008111B0008111B0008111B0008A0
:10009000111B0008111B0008111B0008111B000890
:1000A000111B00082D240008111B0008111B00085B
:1000B000111B0008111B0008111B0008111B000870
:1000C000111B0008111B0008111B0008111B000860
:1000D000111B0008111B0008111B0008111B000850
:1000E000111B0008111B0008111B00080000000074
:1000F0000000000000000000000000000000000000
:1001000000000000111B0008111B00080000000087
:10011000111B0008111B0008000000000000000077
:10012000111B0008111B0008111B0008111B0008FF
:1001300000000000000000000000000000000000BF
:10014000000000000000000000000000111B00087B
:100150000000000000000000111B0008111B000837
:10016000000000000000000000000000111B00085B
:1001700010B5054C237833B9044B13B10448AFF3E1
:1001800000800123237010BD9800002000000000B3
:100190009035000808B5034B1BB103490348AFF382
:1001A000008008BD000000009C0000209035000881
:1001B00053B94AB9002908BF00281CBF4FF0FF31CE
:1001C0004FF0FF3000F074B9ADF1080C6DE904CECA
:1001D00000F006F8DDF804E0DDE9022304B0704722
:1001E0002DE9F047089E04468846002B40F08580A4
:1001F0008A42154648D9B2FA82F24AB1C2F12007C2
:1002000001FA02F320FA07F7954047EA0308944001
:100210004FEA154E230CB8FBFEF71FFA85FC0EFBC8
:10022000178843EA084307FB0CF1994209D9EB18F8
:1002300007F1FF3080F0E380994240F2E080023F16
:100240002B445B1AA4B2B3FBFEF00EFB103344EA5E
:10025000034400FB0CFCA44509D92C1900F1FF3321
:1002600080F0CB80A44540F2C88002382C4440EA9C
:100270000740A4EB0C0400271EB1D4400023C6E9BC
:1002800000433946BDE8F087002A53D0B2FA82F223
:10029000002A40F0B680491B4FEA154E1FFA85F838
:1002A0000127B1FBFEFC230C0EFB1C1143EA0143AA
:1002B00008FB0CF1994207D9EB180CF1FF3002D280
:1002C000994200F2EC808446591AA3B2B1FBFEF0C9
:1002D0000EFB101443EA044408FB00F8A04507D9BC
:1002E0002C1900F1FF3302D2A04500F2DC80184641
:1002F000A4EB080440EA0C40BEE78B4208D9002E6C
:1003000078D00027C6E9000138463946BDE8F087B5
:10031000B3FA83F77FB98B4202D3824200F2BD80E9
:10032000841A61EB030301209846002EA9D0C6E988
:100330000048A6E7FFDEC7F12005BB4022FA05FC16
:100340004CEA030C01FA07F420FA05F821FA05F348
:100350004FEA1C4E48EA0404B3FBFEF9210C0EFBE5
:1003600019331FFA8CF841EA034309FB08FA9A454E
:1003700002FA07F200FA07F10BD91CEB030309F1AB
:10038000FF3080F088809A4540F28580A9F102090B
:100390006344A3EB0A03A4B2B3FBFEF00EFB1033DD
:1003A00044EA034400FB08F8A04508D91CEB040408
:1003B00000F1FF336BD2A04569D90238644440EAAA
:1003C0000940A4EB0804A0FB02894C45C6464B46F5
:1003D00054D351D0002E69D0B1EB0E0264EB03046C
:1003E00004FA05F522FA07F3FC401D43C6E9005460
:1003F000002746E73746304643E7184637E70746C3
:100400001FE7C2F1200320FA03F7954001FA02F03A
:1004100021FA03F34FEA154E3843010CB3FBFEF704
:100420001FFA85F80EFB173341EA034107FB08F377
:100430008B4204FA02F407D9691807F1FF3C28D26D
:100440008B4226D9023F2944CB1A81B2B3FBFEF07E
:100450000EFB103341EA034100FB08F38B4207D93E
:10046000691800F1FF3C10D28B420ED902382944A2
:10047000C91A40EA074714E74145ABD2B8EB020E70
:1004800069EB0C0201381346A4E76046F0E7184612
:1004900095E76746D8E781467BE7384645E7ACF104
:1004A000020C2B4410E702382C4421E73746E8E6DB
:1004B000704700BF000000000000000000000000C6
:1004C00001F0FF01102A2BDB10F0070F08D010F805
:1004D000013B013A8B422DD010F0070F42B3F6D109
:1004E000F0B441EA012141EA014122F007047FF022
:1004F00000070023F0E80256083C85EA010586EA79
:10050000010685FA47F5A3FA87F586FA47F6A5FAB4
:1005100087F68EB9EED1F0BC01F0FF0102F00702C0
:1005200032B110F8013B013A83EA010313B1F8D16B
:100530000020704701387047002D06BF354603384C
:10054000073815F0010F07D1013015F4807F02BF85
:10055000013015F4C03F0130F0BC0138704700BFD6
:1005600080B500AF1E4B1B681D4A43F4AA7313608D
:1005700000F012F90121012000F00EFA00BF00F096
:100580006CF90346002BFAD02321022000F098FAE0
:100590000121022000F000FA00BF192000F036F916
:1005A0000346012BF9D1002000F048FA042000F0A6
:1005B00071FA042000F058FA012000F081FC0220BA
:1005C00000F02CFB00BF00F03FFB0346022BFAD1EA
:1005D000002000F075FC01F0F1FA00BF80BD00BF03
:1005E0000020024080B400AF00BFBD4680BC704711
:1005F00080B400AFFEE780B400AFFEE780B400AF88
:10060000FEE780B400AFFEE780B400AF00BFBD4698
:1006100080BC704780B400AF00BFBD4680BC70474F
:1006200080B400AF00BFBD4680BC704780B400AF4F
:1006300000BFBD4680BC704780B584B000AF0121CB
:100640004FF4C01000F02EF90021002000F0F4FD5E
:100650003B1D184600F04EFC01237B7300233B71C9
:100660000123BB6000233B733B1D184600F058FC80
:10067000032001F0D2F800220021062001F0ACF89E
:1006800000BF1037BD4680BD80B500AF052001F02A
:10069000DDFC012000F0A8FC01210B4800F066FD04
:1006A0000346012B0AD1094B1B78042B03D1074BBE
:1006B00001221A7002E0054B04221A702A2001F070
:1006C00037FF00BF80BD00BF0008014000000020D0
:1006D00080B500AFFFF7D8FF00BF80BD80B582B006
:1006E00000AF7860022001F069FC044801F0A2FF2D
:1006F00041F2883001F0AAFCF4E700BFA8350008F9
:1007000080B584B002AFFFF72BFF01F0B7FBFFF716
:1007100093FF01F04DFE194801F08CFF002001F01D
:100720004DFC174801F086FF01F092FE0346194682
:10073000144801F0E5FE41F2883001F087FC4FF6E5
:10074000FF7300930323104AA021104801F0A8FD75
:100750000346FB71FB79002B09D0FB7919460C4845
:1007600001F0CEFEFB791846FFF7B8FFD6E7FB791C
:100770001946084801F0C4FED0E700BFB0350008B4
:10078000B8350008BC35000804000020C80000206F
:10079000C4350008D835000880B400AF1A4A136881
:1007A00043F00103136000BF174B1B68C3F3400302
:1007B000DBB2012BF8D1144A53686FF30103536085
:1007C00000BF114B5B68C3F38103DBB2002BF8D190
:1007D0000D4B1B680C4A23F0867323F4803313609F
:1007E000094B00225A60084B41F61072DA62064B40
:1007F0004FF480121A63044B4FF41F029A6000BF3B
:10080000BD4680BC704700BF0010024080B485B078
:1008100000AF78600023FB737B681B0C03F18043FF
:1008200003F504331A687B6803F01F03012101FA02
:1008300003F31A407B6803F01F03012101FA03F35D
:100840009A4202D00023FB7301E00123FB73FB7B80
:1008500018461437BD4680BC704780B582B000AFE3
:1008600000237B600023FB7002E07B6801337B6028
:100870001120FFF7CBFF0346012B03D07B68B3F5B4
:10088000405FF2D31120FFF7C1FF0346012B02D0D6
:100890000023FB7001E00123FB70FB78184608374A
:1008A000BD4680BD80B483B000AF78600B46FB705E
:1008B000FB78012B16D17B681B0C03F1804303F5F9
:1008C000043319687B6803F01F0301229A407B6898
:1008D0001B0C03F1804303F50433184641EA02037D
:1008E000036017E07B681B0C03F1804303F50433BE
:1008F00019687B6803F01F03012202FA03F3DA434D
:100900007B681B0C03F1804303F50433184601EAAE
:100910000203036000BF0C37BD4680BC704780B443
:1009200083B000AF78600B46FB70FB78012B16D1CB
:100930007B681B0C03F1804303F5043319687B6863
:1009400003F01F0301229A407B681B0C03F18043D4
:1009500003F50433184641EA0203036017E07B689D
:100960001B0C03F1804303F5043319687B6803F023
:100970001F03012202FA03F3DA437B681B0C03F125
:10098000804303F50433184601EA0203036000BF05
:100990000C37BD4680BC704780B483B000AF0346BF
:1009A0000A46FB711346BB71FB79042B3ED801A2AA
:1009B00052F823F0C9090008DD090008F109000810
:1009C000050A0008190A00081B4ABB7903F0010355
:1009D000D9B2136861F30003136028E0164ABB79AB
:1009E00003F00103D9B2136861F3104313601EE0F2
:1009F000114ABB7903F00103D9B2136861F318639C
:100A0000136014E00C4ABB7903F00103D9B2136AF6
:100A100061F3000313620AE0074ABB7903F00103A4
:100A2000D9B2536A61F30003536200E000BF00BF14
:100A30000C37BD4680BC70470010024080B483B0C4
:100A400000AF0346FB71074AFB7903F00F03D9B2ED
:100A5000536861F30713536000BF0C37BD4680BC79
:100A6000704700BF0010024080B483B000AF03465F
:100A7000FB71074AFB7903F00703D9B2536861F3AE
:100A80000A23536000BF0C37BD4680BC704700BFCF
:100A90000010024080B483B000AF0346FB71074AE8
:100AA000FB7903F00703D9B2536861F3CD23536098
:100AB00000BF0C37BD4680BC704700BF001002402D
:100AC00080B485B000AF03460A46FB711346BB7184
:100AD0000023FB600023FB72FB79002B07D1404A07
:100AE00053686FF3104353603E4BFB6016E03C4A83
:100AF000536843F480335360FB79012B07D13A4BA1
:100B0000FB60374A53686FF35143536006E0354B3F
:100B1000FB60334A536843F400335360FB68334A45
:100B2000934206D9FB68324A934202D80023FB72F3
:100B300035E0FB682F4A934206D9FB682E4A934260
:100B400002D80123FB722AE0FB682C4A934206D9A3
:100B5000FB682B4A934202D80223FB721FE0FB681A
:100B6000284A934206D9FB68274A934202D80323B6
:100B7000FB7214E0FB68254A934206D9FB68244ABD
:100B8000934202D80423FB7209E0FB68214A934296
:100B900005D9FB68204A934201D80523FB72104A0D
:100BA000BB7903F00F03D9B2536861F395435360E7
:100BB000BB791B110A4A03F00303D9B2536861F3EE
:100BC0005E735360064AFB7A03F00703D9B2D36A17
:100BD00061F31A63D36200BF1437BD4680BC70470F
:100BE0000010024000093D0000127A0060823B00C4
:100BF0003F4B4C0080584F000F5E5F0094357700EC
:100C00000F1B7F00101B7F001FBCBE00286BEE0077
:100C10002FD73D0130D73D01D7E9DC0180B483B047
:100C200000AF0346FB71074AFB7903F00303D9B217
:100C3000536861F30103536000BF0C37BD4680BCAD
:100C4000704700BF0010024080B400AF044B5B68E7
:100C5000C3F38103DBB21846BD4680BC704700BFBA
:100C600000100240B0B58CB000AF78600023FB628A
:100C700000237B6200233B620023FB610023BB61F6
:100C80000023BB6200237B6100233B610023FB60E8
:100C9000FFF7DAFF0346FB72FB7A012B1AD0022B17
:100CA0001CD0002B40F0A6807D4B5B6DC3F340232E
:100CB000DBB2002B0AD07A4B1B6BC3F34063DBB271
:100CC000002B03D07B68774A1A6097E07B68764AEE
:100CD0001A6093E07B68744A1A608FE0704B5B681F
:100CE000C3F30043DBB23B626D4BDB6AC3F3C073FB
:100CF000DBB2002B3AD16A4B5B68C3F38343DBB2B0
:100D0000FB62674B5B68C3F34173DBB27B627B6A58
:100D1000002B02D1FB6A0F2B06D17B6A1A01FB6AFA
:100D200013440133FB6202E0FB6A0233FB623B6A5D
:100D3000002B06D1FB6A5D4A02FB03F27B681A6056
:100D40005CE0574B5B68C3F34043DBB2002B06D03B
:100D5000FB6A564A02FB03F27B681A604EE0FB6AAC
:100D6000514A02FB03F27B681A6047E04C4BDB6A96
:100D7000C3F30313DBB27B61494BDB6AC3F3082384
:100D80009BB23B61464BDB6AC3F30203DBB2FB6001
:100D90003B6A002B02D1454BBB620BE0404B5B68CA
:100DA000C3F34043DBB2002B02D0404BBB6201E0F7
:100DB0003D4BBB62BB6A19464FF000023B694FF0E6
:100DC000000403FB02F501FB04F00544A1FB030151
:100DD0006B1819467A69FB6802FA03F34FF00004B6
:100DE0001A462346FFF7E4F903460C461A467B6889
:100DF0001A6003E07B682C4A1A6000BF284B5B68CE
:100E0000C3F30313DBB2FB61294AFB6913441B786C
:100E1000BB617B681A68BB69DA407B685A60204B0B
:100E20005B68C3F30223DBB2FB61224AFB69134414
:100E30001B78BB617B685A68BB69DA407B68DA6003
:100E4000174B5B68C3F3C223DBB2FB611A4AFB6931
:100E500013441B78BB617B685A68BB69DA407B68C6
:100E60009A600F4B5B68C3F30073DBB2FB61FB69F5
:100E70009B000B4A5268C2F38132D2B21343FB612A
:100E80000E4AFB6913441B78BB617B689A68BB6997
:100E9000B2FBF3F27B681A6100BF3037BD46B0BDCC
:100EA00000100240006CDC0200127A0000093D00D4
:100EB000FC3500080C360008143600081C36000803
:100EC00080B483B000AF0346FB71FB79012B05D1E1
:100ED000074A536D43F03003536504E0044A536DF1
:100EE0006FF30513536500BF0C37BD4680BC7047D8
:100EF0000010024080B483B000AF78607B680022AD
:100F00005A727B6800225A607B6801221A727B68E1
:100F100001221A7000BF0C37BD4680BC704700002C
:100F200080B485B000AF78600023FB607B685B68AD
:100F3000FB602C4B1A68FB68DB432A4913400B60AB
:100F4000284B5A68FB68DB43264913404B607B689B
:100F50005B7A002B40D07B681B78002B06D1214B9D
:100F60001A682049FB6813430B6005E01D4B5A6863
:100F70001C49FB6813434B601A4B9A68FB68DB43C0
:100F8000184913408B60174BDA68FB68DB4315493F
:100F90001340CB607B681B7A002B06D1114B9A68FB
:100FA0001049FB6813438B6016E07B681B7A012BAA
:100FB00006D10C4BDA680B49FB681343CB600BE09E
:100FC000084B9A680749FB6813438B60054BDA6846
:100FD0000449FB681343CB6000BF1437BD4680BC97
:100FE000704700BF0004014080B483B000AF786058
:100FF000034A7B68536100BF0C37BD4680BC704715
:101000000004014080B485B000AF786039603B686F
:101010001B683B813B689B79032B02D100237B81BA
:1010200030E03B689B79002B15D13B685B799BB224
:1010300003F00F037B813B685B79182B03D13A895E
:101040007B681A611EE03B685B79282B1AD13A89CC
:101050007B685A6116E03B689B791BB203F008037A
:101060001AB23B681B791BB203F004031BB2134393
:101070001AB23B68DB791BB203F003031BB21343C4
:101080001BB27B813B89DBB2002B25D00023FB60A8
:101090001FE03A89FB6842FA03F303F00103002BD7
:1010A00014D07B681B68FA6892000F2101FA02F2E3
:1010B000D2431A407B681A607B681B687989FA689A
:1010C000920001FA02F21A437B681A60FB6801334E
:1010D000FB60FB68072BDCD93B89FF2B28D93B89B8
:1010E0001B0A3B810023FB601FE03A89FB6842FA40
:1010F00003F303F00103002B14D07B685B68FA68EC
:1011000092000F2101FA02F2D2431A407B685A6022
:101110007B685B687989FA68920001FA02F21A43E7
:101120007B685A60FB680133FB60FB68072BDCD9E6
:1011300000BF1437BD4680BC704780B483B000AF99
:1011400078607B684FF6FF721A607B6800229A71A4
:101150007B6800221A717B6804225A717B68012225
:10116000DA7100BF0C37BD4680BC704780B485B0D3
:1011700000AF78600B467B800023FB737A88798808
:101180007B689B680B409A4202D00023FB7301E00E
:101190000123FB73FB7B18461437BD4680BC7047A8
:1011A00080B487B000AF78600B46FB707B681B0E85
:1011B00003F1804303F580337B617B681B0CFB7478
:1011C0007B681B0ABB747B687B74BB7CC3F1200209
:1011D000FB7CD31A4FF0FF3202FA03F3FB60BB7CB7
:1011E000C3F12002FB7CD31AFA6822FA03F3FB60F6
:1011F000FB7CFA6822FA03F3FB60FB7CFA6802FAD4
:1012000003F3FB607B691968FB68DA437B690A407A
:101210001A60FB78002B09D07B691A68797CFB7C0B
:1012200001FA03F319467B690A431A6000BF1C37B1
:10123000BD4680BC7047000080B485B000AF034657
:101240000A46FB711346BB710023FB60BB7903F0B8
:1012500003039B000F2202FA03F3FB60BB799B0898
:10126000DBB2032B5AD801A252F823F07D120008FA
:10127000A5120008CD120008F51200082A4B9A6842
:10128000FB68DB43284913408B60274B9A68F97948
:10129000BB7903F003039B0001FA03F322491343D4
:1012A0008B603CE0204BDA68FB68DB431E4913404F
:1012B000CB601D4BDA68F979BB7903F003039B001F
:1012C00001FA03F318491343CB6028E0164B1A695F
:1012D000FB68DB43144913400B61134B1A69F9791E
:1012E000BB7903F003039B0001FA03F30E49134398
:1012F0000B6114E00C4B5A69FB68DB430A4913404D
:101300004B61094B5A69F979BB7903F003039B00E0
:1013100001FA03F3044913434B6100E000BF00BF2F
:101320001437BD4680BC70470000014080B582B0D4
:1013300000AF78607B680E4A934208D101210D48C6
:10134000FFF7EDFA00210B48FFF7E9FA0BE07B68A5
:10135000094A934207D101210848FFF7E0FA00212A
:101360000648FFF7DCFA00BF0837BD4680BD00BF66
:1013700000540040150010000058004016001000F6
:1013800080B58CB000AFF8600B467A60FB7200232A
:10139000FB6200233B8500237B85FA6813686FF3AB
:1013A0000003136007F114031846FFF75BFCFB68AA
:1013B0004A4A934203D0FB68494A934201D13B6AAF
:1013C000FB62FB6A474AA2FB03239B0C3B853B8DD8
:1013D000D9B2FA68536861F3070353607B68424AE5
:1013E00093422ED87B685B00FA6AB2FBF3F37B85ED
:1013F0007B8D032B01D804237B857B8DC3F30B03EB
:1014000099B2FA68D36961F30B03D361FA68D369BF
:101410006FF3CF33D3613B8D3E2B05D9FA68136A46
:1014200043F03F03136255E03B8DDBB20133DBB287
:1014300003F03F03D9B2FA68136A61F3050313623C
:1014400048E0FB7A002B0DD17A6813465B00134409
:10145000FA6AB2FBF3F37B85FA68D3696FF38E33D4
:10146000D3610EE07A6813469B0013449A0013443C
:10147000FA6AB2FBF3F37B85FA68D36943F48043DD
:10148000D3617B8D002B01D101237B857B8DC3F341
:101490000B0399B2FA68D36961F30B03D361FA685D
:1014A000D36943F40043D3613B8D4FF4967202FB42
:1014B00003F30E4A82FB03129211DB17D31ADBB23D
:1014C0000133DBB203F03F03D9B2FA68136A61F368
:1014D0000503136200BF3037BD4680BD0054004095
:1014E0000058004083DE1B43A0860100D34D6210EC
:1014F00080B483B000AF78600B46FB7013463B802E
:10150000FB7803F00103D9B27A68936861F3CF33B3
:1015100093603B88C3F3090399B27A68936861F3D7
:101520000903936000BF0C37BD4680BC704780B490
:1015300083B000AF78600B46FB70FB7803F00103CB
:10154000D9B27A68136861F30003136000BF0C37E7
:10155000BD4680BC704780B483B000AF78600B4656
:10156000FB70FB7803F00103D9B27A68136861F36A
:10157000CB23136000BF0C37BD4680BC704780B4DE
:1015800083B000AF78607A68136843F480731360A7
:1015900000BF0C37BD4680BC704780B483B000AF3D
:1015A00078607A68136843F40073136000BF0C37E7
:1015B000BD4680BC704780B483B000AF78600B46F6
:1015C000FB701346BB70BB78002B05D1FB7803F092
:1015D000FE027B681A6106E0FB7843F00103DBB290
:1015E0001A467B681A6100BF0C37BD4680BC704745
:1015F00080B483B000AF78600B46FB70FA787B68EC
:101600001A6100BF0C37BD4680BC704780B485B0FE
:1016100000AF786039600023FB600023BB603B684B
:101620001B0FFB603B6823F07F433B60FB68002B94
:1016300003D17B685B69BB6005E03B681B0C3B60CA
:101640007B689B69BB60BA683B681340002B01D084
:10165000012300E0002318461437BD4680BC7047C4
:1016600080B483B000AF786039603B689BB2DB43E5
:101670009BB21A467B685A6100BF0C37BD4680BCDE
:101680007047000080B485B000AF78607B6803F0DD
:101690000703FB600C4BDB68BB60BA684FF6FF03C7
:1016A0001340BB60FB681A02BB68134343F0BF637F
:1016B00043F40033BB60044ABB68D36000BF1437F7
:1016C000BD4680BC704700BF00ED00E080B400AFB5
:1016D000044BDB681B0A03F007031846BD4680BCB9
:1016E000704700BF00ED00E080B483B000AF034658
:1016F000FB7197F90730002B0BDBFB7903F01F021E
:10170000064997F907305B09012000FA02F241F817
:10171000232000BF0C37BD4680BC704700E100E0CD
:1017200080B483B000AF03463960FB7197F907308E
:10173000002B0ADB3B68DAB20C4997F9073012013B
:10174000D2B20B4483F800230AE03B68DAB20849BE
:10175000FB7903F00F03043B1201D2B20B441A765B
:1017600000BF0C37BD4680BC704700BF00E100E001
:1017700000ED00E080B489B000AFF860B9607A6035
:10178000FB6803F00703FB61FB69C3F10703042B4C
:1017900028BF0423BB61FB690433062B02D9FB6914
:1017A000033B00E000237B614FF0FF32BB6902FA8C
:1017B00003F3DA43BB681A407B699A404FF0FF316C
:1017C0007B6901FA03F3D9437B680B401343184646
:1017D0002437BD4680BC704780B586B000AF034655
:1017E000B9607A60FB7300237B61FFF76FFF0346EC
:1017F0007A68B9681846FFF7BDFF786197F90F302E
:1018000079691846FFF78CFF97F90F301846FFF7F4
:101810006BFF00BF1837BD4680BD80B582B000AFFA
:101820000346FB71FB791846FFF72CFF00BF083712
:10183000BD4680BD80B483B000AF0346FB71FB7929
:10184000042B06D1084B1B68074A43F004031360BE
:1018500005E0054B1B68044A23F00403136000BF36
:101860000C37BD4680BC704710E000E080B483B008
:1018700000AF78600B46FB70FB7803F00103D9B230
:101880007A68136861F30003136000BF0C37BD462C
:1018900080BC704780B485B000AFF860B9607A60F2
:1018A000FB68BA68DA62FB687A689A62FA68536918
:1018B00043F00103536100BF1437BD4680BC70473D
:1018C00080B483B000AF78600B46FB70FB7803F008
:1018D0000703D9B27A68136861F30613136000BF77
:1018E0000C37BD4680BC704780B485B000AFF8604F
:1018F000B9601346FB71FB79012B06D1FB68DA68EE
:10190000BB681A43FB68DA6009E0FB79002B06D15B
:10191000FB68DA68BB68DB431A40FB68DA6000BF2B
:101920001437BD4680BC704780B485B000AF786086
:1019300039600023FB737B681A693B681340002BF6
:1019400002D00123FB7301E00023FB73FB7B1846ED
:101950001437BD4680BC704780B483B000AF786058
:1019600039603B68DA437B681A6100BF0C37BD46BB
:1019700080BC704780B58CB000AFF860B96011468C
:101980001A460B46FB711346BB7107F11403184648
:10199000FFF768F9FB68244A934202D1FB69FB62B6
:1019A00001E03B6AFB62FA6A13469B0013445B004A
:1019B0001A46BB68B2FBF3F3BB62B96A1B4BA3FBCD
:1019C0000123DA0813469B0013445B00CA1A042A59
:1019D00006D8BB6A154AA2FB0323DB08BB6206E0FC
:1019E000BB6A124AA2FB0323DB080133BB62BB6A5A
:1019F00099B2FA68936861F30F039360FB7903F07F
:101A00000103D9B2FA68D36861F30C33D360BB79B0
:101A100003F00303D9B2FA68136961F30D3313615C
:101A200000BF3037BD4680BD00380140CDCCCCCCA6
:101A300080B483B000AF78600B46FB70FB7803F096
:101A40000103D9B27A68D36861F34D33D36000BF24
:101A50000C37BD4680BC704780B483B000AF78605F
:101A60000B46FB70FB7803F00103D9B27A68D368A8
:101A700061F3C303D36000BF0C37BD4680BC704721
:101A800080B483B000AF78600B467B807B88C3F363
:101A900008027B685A6000BF0C37BD4680BC7047A7
:101AA00080B483B000AF786039607B681A683B68A7
:101AB0001340002B01D0012300E0002318460C370F
:101AC000BD4680BC70470000002103E00B4B5B5813
:101AD000435004310A480B4B42189A42F6D30A4A43
:101AE00002E0002342F8043B084B9A42F9D300F08D
:101AF00011F800F0D9FCFEF703FE70471837000814
:101B00000000002098000020980000201001002014
:101B1000FEE7000080B400AF254AD36943F080534C
:101B2000D361244B1B78DBB2224A43F00403DBB2BF
:101B300013701F4AD3696FF31C73D3611C4A136877
:101B400043F00103136000BF194B1B68C3F340034C
:101B5000DBB2012BF8D1164A53686FF301035360CF
:101B600000BF134B5B68C3F38103DBB2002BF8D1DA
:101B70000F4B1B680E4A23F0867323F480331360E7
:101B80000B4B00225A600A4B41F61072DA62084B86
:101B90004FF480121A63064B4FF41F029A60064BF3
:101BA0004FF000629A6000BFBD4680BC704700BF26
:101BB000001002405070004000ED00E0B0B58AB067
:101BC00000AF00237B620023FB610023BB61002385
:101BD0007B6100233B6100233B620023FB60002309
:101BE000BB6000237B60FFF72FF80346FB70FB7898
:101BF000012B1AD0022B1CD0002B40F0A680604B8A
:101C00005B6DC3F34023DBB2002B0AD05C4B1B6B34
:101C1000C3F34063DBB2002B03D05A4B5A4A1A601D
:101C200097E0584B594A1A6093E0564B574A1A604E
:101C30008FE0534B5B68C3F30043DBB2BB61504B97
:101C4000DB6AC3F3C073DBB2002B3AD14C4B5B6849
:101C5000C3F38343DBB27B62494B5B68C3F34173DD
:101C6000DBB2FB61FB69002B02D17B6A0F2B06D133
:101C7000FB691A017B6A134401337B6202E07B6AD1
:101C800002337B62BB69002B06D17B6A404A02FBB0
:101C900003F33C4A13605CE0394B5B68C3F3404399
:101CA000DBB2002B06D07B6A394A02FB03F3354ACC
:101CB00013604EE07B6A354A02FB03F3314A13603E
:101CC00047E02F4BDB6AC3F30313DBB2FB602C4B03
:101CD000DB6AC3F308239BB2BB60294BDB6AC3F307
:101CE0000203DBB27B60BB69002B02D1284B3B6255
:101CF0000BE0234B5B68C3F34043DBB2002B02D005
:101D0000234B3B6201E0214B3B623B6A19464FF09B
:101D10000002BB684FF0000403FB02F501FB04F076
:101D20000544A1FB03016B181946FA687B6802FAA7
:101D300003F34FF000041A462346FEF739FA034630
:101D40000C461A460F4B1A6003E00E4B0F4A1A60FE
:101D500000BF0B4B5B68C3F30313DBB27B610D4A1F
:101D60007B6913441B783B61064B1A683B6922FA76
:101D700003F3044A136000BF2837BD46B0BD00BF5F
:101D8000001002400C000020006CDC0200127A00FF
:101D900000093D002436000880B582B000AF7860AD
:101DA00000BF80210848FFF77BFE0346002BF8D0D8
:101DB0007B689BB219460448FFF762FE7B681846B1
:101DC0000837BD4680BD00BF0038014080B586B0F1
:101DD00000AFF860B9607A6000237B6109E0BB68FE
:101DE0005A1CBA601B781846FFF7D6FF7B6901338F
:101DF0007B617A697B689A42F1DB00BF184618372D
:101E0000BD4680BD80B584B000AF78600121174821
:101E1000FEF748FD01211648FEF744FD07F10803CF
:101E20001846FFF78AF90123FB7300233B7308234D
:101E3000BB734FF40073BB6004237B7307F108038B
:101E400019460C48FFF7DEF80023002279680A489B
:101E5000FFF790FD01210848FFF7FEFD012106482C
:101E6000FFF7E6FD00BF1037BD4680BD0E0018002D
:101E700002001800000801400038014080B500AFA2
:101E800000F0C4F8002000F043F8012000F040F812
:101E9000022000F03DF8002000F06EF8012000F074
:101EA0006BF8022000F068F800F010F84FF4E13011
:101EB000FFF7A8FF034B044A1A60024800F066F9D6
:101EC00000BF80BDC80000200054004080B582B033
:101ED00000AF01210C48FEF7E5FC3B461846FFF732
:101EE0002CF90123FB7100233B710023BB710123FB
:101EF0003B6028237B713B4619460448FFF782F874
:101F000000BF0837BD4680BD020018000008014030
:101F100080B584B000AF0346FB71FB79134A52F8D9
:101F2000233001211846FEF7BDFC07F108031846CF
:101F3000FFF703F90123FB7300233B731023BB73EB
:101F4000FB790B4A32F81330BB6004237B73FB79B7
:101F5000084A52F8233007F1080211461846FFF7E5
:101F600051F800BF1037BD4680BD00BF24000020DF
:101F70001C0000201000002080B483B000AF034696
:101F8000FB71FB79022B10D8FB790A4A32F8133027
:101F9000002B0BD0FB79074A32F81310FB79064A65
:101FA00052F823300A461A6100E000BF0C37BD46E4
:101FB00080BC70471C0000201000002080B483B05B
:101FC00000AF0346FB71FB79022B16D8FB790D4A53
:101FD00032F81330002B11D0FB790B4A52F8233022
:101FE000DA68FB79074931F813301846FB7906495E
:101FF00051F823304240DA6000E000BF0C37BD46A4
:1020000080BC70471C0000201000002080B500AF8D
:102010000420FFF70FFC094B1B68094AA2FB0323AE
:102020009B0C084A1360074B1B684FF47A7202FB43
:1020300003F3054A136000BF80BD00BF0C00002001
:1020400083DE1B43B4000020B800002080B485B0BC
:1020500000AF0346FB800023FB6035E0FB88322B9A
:102060000AD91D4B1B681D4A322101FB03F3536043
:10207000FB88323BFB8008E0FB88174A126817494F
:1020800002FB03F34B600023FB80144B00229A6099
:10209000124B1B68114A43F0010313600F4B1B687E
:1020A000FB60FB6803F00103002B04D0FB6803F422
:1020B0008033002BF2D0094B1B68084A23F0010340
:1020C0001360064B00229A60FB88002BC6D100BF2C
:1020D0001437BD4680BC7047B800002010E000E017
:1020E00080B584B000AF78607B681B68214A93425A
:1020F0003CD101212048FEF7D5FB01211F48FEF706
:10210000D1FB01211D48FEF7CDFB01214FF4C0108A
:10211000FEF7C8FB01211A48FFF742F804233B737E
:1021200018237B730823BB730223FB734FF4807364
:10213000BB6007F1080319461248FEF763FF4FF42E
:102140000073BB6007F1080319460E48FEF75AFFFB
:102150007B681B680C4A00211846FFF711F97B6861
:102160001B68A02200211846FFF7C2F900BF1037F4
:10217000BD4680BD0054004015001C00030018003F
:1021800001040428000C0140A086010080B582B043
:1021900000AF78607B681B681846FFF7C7F878685F
:1021A000FFF79EFF7B681B6801211846FFF7BFF908
:1021B00000BF0837BD4680BD80B584B000AFF86071
:1021C000B9607A603B60BB68344A934257D109E0FA
:1021D0003B685A1E3A60002B04D1FB6812221A7623
:1021E000122356E0FB681B68B9681846FFF70EFA21
:1021F0000346002BECD14BE07B6803F00103002B7E
:102200001AD0FB681B684FF480611846FFF7FEF98F
:102210000346002B10D0FB681B681846FFF7BDF97A
:10222000FB681B684FF480611846FFF719FAFB68DA
:1022300011221A7611232CE07B6803F00203002B95
:1022400013D0FB681B6810211846FFF7DFF903461F
:10225000002B0AD0FB681B6810211846FFF700FA14
:10226000FB6810221A76102313E03B685A1E3A606E
:10227000002B04D1FB6812221A76122309E0FB68B6
:102280001B68B9681846FFF7C1F90346002BB3D0A5
:10229000002318461037BD4680BD00BF0000021065
:1022A00080B584B000AFF8607A601A460B467B8137
:1022B00013463B81FB687A685A60FB683A891A8149
:1022C000FB6800221A76BB6900223549F868FFF7DF
:1022D00073FF0346002B01D001235CE0314800F07E
:1022E000A9F9FB681B6800211846FFF734F9FB6861
:1022F0001B681846FFF743F9BB6900220121F86803
:10230000FFF75AFF0346002B04D0FB680D221A7614
:102310000D2340E0FB681B687A89D1B20022184681
:10232000FFF749F9BB6901220221F868FFF744FF72
:102330000346002B04D0FB680F221A760F232AE0F5
:10234000BB6901228021F868FFF736FF0346002BA6
:1023500006D0FB681B681846FFF71FF903231AE035
:10236000114800F067F99921F868FFF741F9BB6956
:1023700001228021F868FFF71FFF0346002B06D0DB
:10238000FB681B681846FFF708F9032303E00748BA
:1023900000F050F9002318461037BD4680BD00BF3D
:1023A0000000021034360008483600085C36000889
:1023B00080B586B000AF3B1D00221A605A609A605B
:1023C000DA601A613B1D1846FEF74CFC01211448E7
:1023D000FEF768FABB68134AA2FB03235B0B013BC1
:1023E0001A4642F20F711048FFF754FA00210E48C6
:1023F000FFF766FA012201210B48FFF775FA032067
:10240000FFF70BFA002200211920FFF7E5F901215F
:102410000548FFF72BFA00BF1837BD4680BD00BF47
:102420000B0018005917B7D1002C014080B500AF40
:1024300001210648FFF778FA0346002B03D001215B
:102440000248FFF789FA00BF80BD00BF002C0140A1
:1024500080B485B000AF114B1B68FB60104B1B684C
:10246000BB60104B1B687B60FB68C3F31002FB680A
:102470005B0A03F4F0031A43BB685B0503F4C00373
:102480001A437B681B02DB0DDB0513433B603B6893
:1024900018461437BD4680BC704700BFE8F7FF1FE1
:1024A000ECF7FF1FF0F7FF1F70B50D4D0D4C641BCF
:1024B000A4100026A64209D10B4D0C4C01F068F87F
:1024C000641BA4100026A64205D170BD55F8043B3C
:1024D00098470136EEE755F8043B98470136F2E796
:1024E00010370008103700081037000814370008AC
:1024F00002440346934200D1704703F8011BF9E7F9
:102500000FB40A4B13B51C6824B1A36913B9204654
:1025100000F072FA05AB049AA1680193204600F01E
:102520003FFC02B0BDE8104004B07047340000200A
:1025300038B5084B1C68054624B1A36913B9204679
:1025400000F05AFAA26829462046BDE8384000F05B
:10255000D9BE00BF3400002070B50E46054618B144
:1025600083690BB900F048FAAB69AC6813B9284627
:1025700000F042FA2C4B9C4220D16C68636EDB0762
:1025800005D4A389980502D4A06D00F0D2FAA389DE
:1025900019071DD52369DBB1013EA36816F8011F99
:1025A000013BA36039BB002B38DA22460A212846BA
:1025B00000F048F8013011D00A2511E01B4B9C4275
:1025C00001D1AC68DAE71A4B9C4208BFEC68D5E74A
:1025D0002146284600F088F80028DDD04FF0FF356E
:1025E000636EDA0705D4A3899B0502D4A06D00F0C1
:1025F000A1FA284670BD002B04DAA2699A4206DCD3
:102600000A2904D023685A1C22601970C5E72246A3
:10261000284600F017F80130BFD1DFE723680A250C
:102620005A1C22601D70DBE794360008B43600089F
:1026300074360008024B01461868FFF78DBF00BFD3
:1026400034000020F8B50E461446054618B18369DB
:102650000BB900F0D1F9214B9C422BD16C68A369D6
:10266000A360A3891A072FD523696BB32369206858
:10267000C01A6369F6B28342374604DC2146284615
:1026800000F026F930BBA368013BA36023685A1C05
:1026900022601E7063690130834204D0A389DB0786
:1026A00006D50A2E04D12146284600F011F988B932
:1026B0003846F8BD0A4B9C4201D1AC68CFE7094BC4
:1026C0009C4208BFEC68CAE72146284600F00CF897
:1026D0000028CBD04FF0FF37EAE700BF9436000860
:1026E000B436000874360008324B70B51D680646D3
:1026F0000C4625B1AB6913B9284600F07DF92E4B85
:102700009C420FD16C68B4F90C309AB215072CD4E6
:10271000D00611D40922326043F04003A3814FF068
:10272000FF303EE0254B9C4201D1AC68EBE7244BE7
:102730009C4208BFEC68E6E7510712D5616B41B1D6
:1027400004F14403994202D0304600F059FA0023C4
:102750006363A38923F02403A381002363602369B7
:102760002360A38943F00803A38123694BB9A3899C
:1027700003F42073B3F5007F03D02146304600F008
:10278000FFF9A28912F001030CD00023A360636952
:102790005B42A361236953B9B4F90C3013F0800094
:1027A000BAD170BD920758BF6369A360F2E70020F9
:1027B000F7E700BF3400002094360008B436000864
:1027C000743600088A892DE9F041054610070C4649
:1027D00058D44B68002B05DC0B6C002B02DC00206E
:1027E000BDE8F081E66A002EF9D0002312F4805291
:1027F0002F682B6032D0606DA3895A0705D56368B6
:10280000C01A636B0BB1236CC01A00230246E66A40
:10281000216A2846B047431CA38906D129681D298F
:102820002CD82A4ACA40D60728D500226260D9048B
:102830002269226004D5421C01D12B6803B960656E
:10284000616B2F600029CAD004F14403994202D081
:10285000284600F0D5F900206063C1E7216A012312
:102860002846B047411CC7D12B68002BC4D01D2B74
:1028700001D0162B01D12F60B1E7A38943F04003AB
:10288000A381ADE70F69002FA9D093070E6808BF99
:102890004B690F6018BF0023A6EB07088B60B8F1E7
:1028A000000F9CDD43463A46216AA66A2846B04797
:1028B000002806DCA38943F04003A3814FF0FF30DA
:1028C0008EE70744A8EB0008E9E700BF01004020BD
:1028D00038B50B6905460C4613B90025284638BDA6
:1028E00018B183690BB900F087F8144B9C421BD1D7
:1028F0006C68B4F90C30002BEFD0626ED00704D4B2
:10290000990502D4A06D00F014F928462146FFF77E
:1029100059FF636EDA070546E0D4A3899B05DDD431
:10292000A06D00F007F9D9E7054B9C4201D1AC68D6
:10293000DFE7044B9C4208BFEC68DAE794360008F6
:10294000B436000874360008002310B50446C0E908
:102950000033836081814366C281C0E904338361AF
:10296000194608225C30FFF7C3FD054B6362054B37
:10297000A362054BE362054B2462236310BD00BFD5
:10298000B5330008D73300080F340008333400088B
:10299000014900F0AFB800BFD128000870B54A1E49
:1029A000682555430E4605F1740100F077F9044699
:1029B00040B10021C0E900160C30A06005F16802AA
:1029C000FFF796FD204670BD014800F0B2B800BF89
:1029D00008010020014800F0ADB800BF0801002048
:1029E000014800F0A6B800BF03010020014800F034
:1029F000A1B800BF0301002010B50446FFF7F0FFA7
:102A0000A3691BB1BDE81040FFF7F0BFC4E9123362
:102A10002365134B134A1B68A262A34204BF012320
:102A2000A361204600F020F86060204600F01CF80A
:102A3000A060204600F018F80022E06004216068E1
:102A4000FFF782FF01220921A068FFF77DFF022224
:102A50001221E068FFF778FF0123A361D2E700BFEE
:102A60007036000891290008F8B50746FFF7ACFF5B
:102A70001E4B1E68B36913B93046FFF7BDFF4836D9
:102A8000D6E90134013B03D533680BB33668F7E769
:102A9000B4F90C50D5B9164BE36004F158006566E3
:102AA00000F046F8FFF796FF2560C4E90155C4E938
:102AB0000455A5610822294604F15C00FFF718FDC2
:102AC000C4E90D55C4E912552046F8BD6834D9E76C
:102AD00004213846FFF762FF044630600028D5D154
:102AE000FFF778FF0C233B60EEE700BF703600086D
:102AF0000100FFFF2DE9F8438046894600F14804B4
:102B0000002614B93046BDE8F883D4E90175013FC9
:102B100001D52468F5E7AB89012B07D9B5F90E304B
:102B2000013303D029464046C84706436835EEE7DF
:102B300070477047704770B50E46B1F90E10002906
:102B400096B014461D4607DA00232B60B3891A0697
:102B500010D44FF480630EE06A4600F091FC002828
:102B6000F2DB019A02F47042A2F500535A425A4134
:102B70002A60EEE740230020236016B070BD0000FD
:102B80008B8973B59D0706460C4607D504F14703AC
:102B9000236023610123636102B070BD01AB6A460B
:102BA000FFF7C9FF00990546304600F077F848B9AD
:102BB000B4F90C309A05EFD423F0030343F0020379
:102BC000A381E3E70D4BB362A389206043F0800348
:102BD000A381009B6361019B20615BB1B4F90E107E
:102BE000304600F05FFC28B1A38923F0030343F0D3
:102BF0000103A381A3891D43A581CDE79129000885
:102C000038B50546002945D051F8043C0C1F002B6F
:102C1000B8BFE41800F068FC1F4A1368104633B9C7
:102C2000636014602846BDE8384000F063BCA342EE
:102C30000CD921686218934204BF1A685B6863600C
:102C400004BF521822600460ECE713465A680AB1C8
:102C5000A242FAD919685818A0420BD12068014441
:102C6000581882421960DDD1106852685A600144D8
:102C70001960D7E702D90C232B60D3E7206821180D
:102C80008A4204BF11685268626004BF091821605B
:102C90005C60C7E738BD00BFBC000020F8B5CD1CA4
:102CA00025F0030508350C2D38BF0C25002D0646F0
:102CB00001DBA94203D90C2333600020F8BD00F0EA
:102CC00013FC21490A6814469CB9204F3B6823B97C
:102CD0002146304600F05EFB38602946304600F061
:102CE00059FB431C23D10C233360304600F002FC17
:102CF000E3E723685B1B17D40B2B03D923601C4429
:102D0000256004E06368A2420CBF0B60536030464C
:102D100000F0F0FB04F10B00231D20F00700C21AA5
:102D2000CCD01B1AA350C9E722466468CCE7C41C68
:102D300024F00304A042E3D0211A304600F02AFB1D
:102D40000130DDD1CFE700BFBC000020C000002073
:102D50009368013B002B10B4936007DA9469A34297
:102D600001DB0A2902D110BCFFF76CBC1368581CA8
:102D700010601970084610BC7047F8B506460F463B
:102D80001446D518AC4201D1002007E03A4614F8A9
:102D9000011B3046FFF7DCFF431CF3D1F8BD0000F8
:102DA0002DE9F04F0D469DB014461E46074618B15A
:102DB00083690BB9FFF720FE854B9D421BD17D68CF
:102DC0006B6ED90705D4AB899A0502D4A86DFFF7BD
:102DD000B0FEAB891B0701D52B69EBB929463846F4
:102DE000FFF782FCC0B16B6ED8070ED54FF0FF30F5
:102DF0001DB0BDE8F08F774B9D4201D1BD68DFE784
:102E0000754B9D4208BFFD68DAE7AB899905EDD4A3
:102E1000A86DFFF78FFEE9E70023099320238DF8C3
:102E20002930DFF8B891039630238DF82A304FF01F
:102E3000010A23461E4613F8012B0AB1252AF9D1AF
:102E4000B6EB040B0BD05B46224629463846FFF70B
:102E500094FF013000F0A380099B5B440993337811
:102E6000002B00F09C8000234FF0FF32CDE90523BA
:102E70000136049307938DF853301A933446052294
:102E800014F8011B5548FDF71BFB049BC0B9DA067B
:102E900044BF20228DF85320180744BF2B228DF801
:102EA000532032782A2A13D0079A344600200A2663
:102EB000214611F8013B303B092B4BD970B914E086
:102EC000A0EB09000AFA00F0184304902646D5E763
:102ED000039A111D12680391002A01DB079204E096
:102EE000524243F002030792049323782E2B0CD115
:102EF00063782A2B33D1039B1A1D1B680392002B86
:102F0000B8BF4FF0FF3302340593354E21780322CA
:102F10003046FDF7D5FA38B14023801B03FA00F0A4
:102F2000049B03430134049314F8011B2D488DF8CE
:102F300028100622FDF7C4FA00283FD02A4B13BB05
:102F4000039B073323F0070308330393099B434490
:102F500009936EE706FB023201200C46A8E7002326
:102F60000134059319460A26204610F8012B303A01
:102F7000092A03D9002BC8D00591C6E706FB012119
:102F800001230446F0E703AB00932A46174B04A93C
:102F90003846AFF30080B0F1FF3F8046D6D16B6E6C
:102FA000D90705D4AB899A0502D4A86DFFF7C2FDF5
:102FB000AB895B063FF51AAF099819E703AB00939D
:102FC0002A460A4B04A9384600F088F8E3E700BF18
:102FD00094360008B436000874360008D436000869
:102FE000DA360008DE360008000000007B2D0008FD
:102FF0002DE9F04791461F468A680B69DDF820806D
:103000009342B8BF1346C9F8003091F843200646F2
:103010000C4612B10133C9F800302368990642BF4B
:10302000D9F800300233C9F80030256815F00605DC
:1030300007D104F1190AE368D9F800209B1AAB42C2
:1030400028DC94F843302268003318BF012392062D
:103050002DD404F1430239463046C047013020D018
:103060002368E568D9F8002003F00603042B08BFA5
:10307000AD1AA36822690CBF25EAE57500259342C5
:10308000C4BF9B1AED184FF000091A344D451AD1F0
:10309000002008E00123524639463046C04701303F
:1030A00003D14FF0FF30BDE8F0870135C3E7E118E9
:1030B0005A1C302081F84300224494F8451082F8CD
:1030C00043100233C5E70123224639463046C04744
:1030D0000130E6D009F10109D8E700002DE9F043FD
:1030E00006460C4601F14300097E85B06E299846DC
:1030F00017460C9B00F0BA8024D8632939D00AD82F
:10310000002900F0C380582900F0918004F14205A5
:1031100084F8421035E0642901D06929F6D1256888
:103120001A6815F0800F02F104012CD012681960A2
:10313000002A03DA2D23524284F84330DFF8BCC161
:103140000A233FE0732900F0A58008D86F2921D019
:103150007029DBD1226842F02002226003E0752949
:1031600018D07829D2D1782284F84520DFF890C190
:1031700061E01A68111D1960136884F8423004F187
:103180004205012393E01268196015F0400F18BF43
:1031900012B2CDE7D4F800C01A681CF0800F02F11B
:1031A00004051D6001D0126803E01CF0400FFAD046
:1031B0001288DFF848C16F290CBF08230A230021B9
:1031C00084F843106568A560002DA2BF216821F036
:1031D000040121600AB9002D46D00546B2FBF3F187
:1031E00003FB112E93421CF80EE005F801ED39D9CE
:1031F000082B0BD12368DA0708D5236962689A4245
:10320000DEBF302305F8013C05F1FF35401B20618E
:10321000CDF800803B4603AA21463046FFF7E8FE82
:10322000013049D14FF0FF3005B0BDE8F083DFF841
:10323000CCC084F845101D68216855F8042B1D602A
:103240000D060BD5CD0744BF41F0200121601AB90E
:10325000236823F0200323601023B0E74B0648BF08
:1032600092B2EFE70A46B9E70546C1E71A68D4F813
:1032700000C06169151D1D601CF0800F136801D02E
:10328000196003E01CF0400FFAD01980002323617D
:103290000546BDE71A68111D1960156862680021AE
:1032A0002846FDF70DF908B1401B60606368236193
:1032B000002384F84330ABE723692A463946304679
:1032C000C0470130AED023689B0713D4E068039B4E
:1032D0009842B8BF1846A7E701234A463946304608
:1032E000C04701309ED00135E368039A9B1AAB4278
:1032F000F2DCEBE7002504F11909F5E7E5360008F3
:10330000F636000870B50D461446064618B18369B6
:103310000BB9FFF771FB1C4B9C4224D17468636EA0
:10332000D80705D4A389990502D4A06DFFF701FC45
:10333000A368013B002BA36005DAA26993421CDB62
:10334000EBB20A2B19D023685A1C22601D70EDB213
:10335000636EDA0705D4A3899B0502D4A06DFFF73D
:10336000E9FB284670BD094B9C4201D1B468D6E701
:10337000074B9C4208BFF468D1E7294622463046F5
:10338000FFF760F90546E3E794360008B436000815
:103390007436000838B5064C0023054608462360FD
:1033A00000F0E8F8431C02D1236803B12B6038BD5C
:1033B0000C01002010B50C46B1F90E1000F0A0F879
:1033C0000028ABBF636DA3891B1823F48053ACBFE7
:1033D0006365A38110BD2DE9F0411F468B89DB0594
:1033E00005460C46164605D502230022B1F90E10FB
:1033F00000F068F8A389B4F90E1023F48053A38178
:1034000032463B462846BDE8F04100F017B810B5FB
:103410000C46B1F90E1000F055F8431CA38915BFF6
:10342000606523F4805343F48053A38118BFA381C4
:1034300010BDB1F90E1000F013B8000038B5074CFC
:10344000054608461146002222601A46FEF7BEFCD9
:10345000431C02D1236803B12B6038BD0C0100204E
:1034600038B5064C002305460846236000F05AF89C
:10347000431C02D1236803B12B6038BD0C0100202E
:1034800038B5074C0023054608461146236000F076
:1034900051F8431C02D1236803B12B6038BD00BF33
:1034A0000C01002038B5064C002305460846236071
:1034B00000F048F8431C02D1236803B12B6038BDEB
:1034C0000C01002038B5074C05460846114600227D
:1034D00022601A4600F03EF8431C02D1236803B173
:1034E0002B6038BD0C0100200148FFF722BB00BF54
:1034F000040100200148FFF71DBB00BF04010020AC
:1035000038B5074C054608461146002222601A4687
:1035100000F028F8431C02D1236803B12B6038BDAA
:103520000C010020024B58221A604FF0FF30704708
:103530000C010020024B58221A604FF0FF307047F8
:103540000C010020024B58221A600020704700BF77
:103550000C010020024B58221A604FF0FF307047D8
:103560000C010020024B58221A604FF0FF307047C8
:103570000C010020044A05491368002B08BF0B46C4
:103580001844106018467047C40000201001002045
:10359000F8B500BFF8BC08BC9E467047F8B500BF40
:0835A000F8BC08BC9E46704710
:1035A8006572726F72210D0068656C6C6F0D00009A
:1035B800476F0D00253034580D0A00006932635FEB
:1035C8007374617475733A2025640D0A0000000055
:1035D8006932632072656164206F6E63652073755C
:1035E8006363656564202564202D2D2D2D2D2D2DDB
:1035F8000D0A0000000000000000000001020304A2
:10360800060708090000000001020304000000008A
:103618000102030402040608020C0810000000005E
:1036280000000000010203040607080962757379A7
:1036380020666C61672072657365740D0000000078
:10364800317374207464626520666C6167207365E9
:10365800740D000020326E64207464626520666C0C
:103668006167207365740D003800002000000000B9
:103678000000000000000000000000000000000042
:103688000000000000000000000000000000000032
:103698000000000000000000000000000000000022
:1036A8000000000000000000000000000000000012
:1036B8000000000000000000000000000000000002
:1036C800000000000000000000000000232D302B47
:1036D8002000686C4C00656667454647003031320B
:1036E8003334353637383941424344454600303162
:1036F80032333435363738396162636465660000C1
:08370800D8CAFF7F0100000098
:043710009501000817
:043714007101000837
:1037180004000000010203040506070800127A00ED
:103728000010014000100140001001400400080092
:10373800200000000400180004001800040018000D
:103748000100000038000020000000009436000846
:10375800B4360008743600080000000000000000BD
:103768000000000000000000000000000000000051
:103778000000000000000000000000000000000041
:103788000000000000000000000000000000000031
:103798000000000000000000000000000000000021
:0837A800000000000000000019
:0400000508001AC90C
:00000001FF
